:020000040000FA
:100000000C9458000C9480000C9480000C94800098
:100010000C9480000C9480000C9480000C94800060
:100020000C9480000C9480000C9480000C94800050
:100030000C9480000C9480000C9480000C94800040
:100040000C94EC040C9480000C945C050C94360524
:100050000C9480000C9480000C9480000C94800020
:100060000C948E050C9480000000000025002800F0
:100070002B00040404040404040402020202020229
:10008000030303030303010204081020408001025C
:1000900004081020010204081020000000080002DB
:1000A0000100000304070000000000000000AD068E
:1000B00011241FBECFEFD8E0DEBFCDBF11E0A0E01E
:1000C000B1E0E8EBF3E102C005900D92AA3BB10765
:1000D000D9F723E0AAEBB1E001C01D92A934B20721
:1000E000E1F710E0C8E5D0E004C02197FE010E94CE
:1000F0008C08C735D107C9F70E94FB060C94DA09B2
:100100000C940000677070E0660F771FE0912D027D
:10011000F0912E02E60FF71F20813181582F5F707A
:1001200081E090E002C0880F991F5A95E2F740FFE6
:1001300005C0822B932B91838083089580959095A1
:1001400082239323F8CF90E0FC01E656FF4F2491E1
:10015000FC01EA57FF4F3491FC01EE58FF4FE49148
:10016000EE23C9F0222339F0233001F1A8F4213025
:1001700019F1223029F1F0E0EE0FFF1FE859FF4F8F
:10018000A591B4918FB7F894EC91611126C0309588
:100190003E233C938FBF08952730A9F02830C9F043
:1001A000243049F7809180008F7D03C080918000CA
:1001B0008F7780938000DFCF84B58F7784BDDBCFCE
:1001C00084B58F7DFBCF8091B0008F778093B00096
:1001D000D2CF8091B0008F7DF9CF3E2BDACF3FB7E1
:1001E000F8948091290290912A02A0912B02B0915B
:1001F0002C0226B5A89B05C02F3F19F00196A11D22
:10020000B11D3FBFBA2FA92F982F8827BC01CD0160
:10021000620F711D811D911D42E0660F771F881FBF
:10022000991F4A95D1F708958F929F92AF92BF92EE
:10023000CF92DF92EF92FF924B015C010E94EF00A0
:100240006B017C010E94EF006C197D098E099F09EA
:10025000683E734081059105A8F321E0821A910858
:10026000A108B10888EEC80E83E0D81EE11CF11C7D
:1002700081149104A104B10429F7FF90EF90DF905D
:10028000CF90BF90AF909F908F900895089508955C
:10029000AF92BF92CF92DF92EF92FF920F931F9394
:1002A000CF93DF936C017B018B01040F151FEB01D2
:1002B0005E01AE18BF08C017D10759F06991D60189
:1002C000ED91FC910190F081E02DC6010995892BFB
:1002D00079F7C501DF91CF911F910F91FF90EF90BA
:1002E000DF90CF90BF90AF900895FC01538D448D67
:1002F000252F30E0842F90E0821B930B541710F0D1
:10030000CF96089501970895FC01918D828D9817DD
:1003100061F0A28DAE0FBF2FB11D5D968C91928DB5
:100320009F5F9F73928F90E008958FEF9FEF0895E6
:10033000FC01918D828D981731F0828DE80FF11DAF
:10034000858D90E008958FEF9FEF0895FC01918DCA
:10035000228D892F90E0805C9F4F821B91098F73C3
:100360009927089583E892E00E94A60121E0892B55
:1003700009F420E0822F089580E090E0892B29F095
:100380000E94B20181110C9400000895FC01A48D1B
:10039000A80FB92FB11DA35ABF4F2C91848D90E0A7
:1003A00001968F739927848FA689B7892C93A0898A
:1003B000B1898C91837080648C93938D848D981314
:1003C00006C00288F389E02D80818F7D80830895A7
:1003D000EF92FF920F931F93CF93DF93EC0181E095
:1003E000888F9B8D8C8D98131AC0E889F98980813C
:1003F00085FF15C09FB7F894EE89FF896083E8896F
:10040000F98980818370806480839FBF81E090E060
:10041000DF91CF911F910F91FF90EF900895F62EED
:100420000B8D10E00F5F1F4F0F731127E02E8C8D87
:100430008E110CC00FB607FCFACFE889F9898081CC
:1004400085FFF5CFCE010E94C601F1CFEB8DEC0FF9
:10045000FD2FF11DE35AFF4FF0829FB7F8940B8FE9
:10046000EA89FB8980818062CFCFCF93DF93EC0153
:10047000888D8823B9F0AA89BB89E889F9898C918C
:1004800085FD03C0808186FD0DC00FB607FCF7CF48
:100490008C9185FFF2CF808185FFEDCFCE010E9448
:1004A000C601E9CFDF91CF9108952091FB01260F7E
:1004B0003327331F21323105ECF420915902FC011E
:1004C00090E080E0243069F082E00895A091FB0183
:1004D0002191AC0145525E4FA40FB52FB11D2C9355
:1004E0000196861798F38091FB01680F6093FB01DA
:1004F00080E0089581E008951092590281E0809390
:1005000058021092330261E082E10E94A30061E090
:1005100083E10E94A300E9EBF0E080818E7F80837D
:1005200080818D7F808388E48093B80085E4809308
:10053000BC000895CF93DF9391E09093DA01882374
:10054000B9F0C091B800D091BA008091BC008A7B0C
:100550008093BC0060E082E10E94A30060E083E140
:100560000E94A3000E947C02D093BA00C093B800FE
:10057000DF91CF910895CF92DF92EF92FF920F9388
:100580001F93CF93DF93D091820281E0D13208F0A4
:100590009CC0C09181020E94EF006B017C018091A0
:1005A000590281116CC082E08093590281E08093EE
:1005B00058028FEF8093570210925602D093550243
:1005C000A1E6B2E0E5E3F2E080E0D8138DC010923E
:1005D000340280913402CC0FC82BC0933402809136
:1005E0003302813009F084C0109233020E94EF0080
:1005F0006B017C01809134028093BB0080915B028F
:1006000090915C02A0915D02B0915E02892B8A2BD1
:100610008B2BA1F00E94EF0000915B0210915C0215
:1006200020915D0230915E026C197D098E099F094F
:10063000061717072807390708F442C08091BC0045
:1006400083FDD8CF85EC8093BC000E94EF006B0146
:100650007C0180915902823009F44CC0809157028C
:100660008F3F09F469C080915702803209F466C057
:1006700080915702803309F463C084E026C08091E2
:100680005B0290915C02A0915D02B0915E02892BA9
:100690008A2B8B2B09F483CF0E94EF0000915B0221
:1006A00010915C0220915D0230915E026C197D090F
:1006B0008E099F09061717072807390708F06FCF1B
:1006C00080915A020E949A0285E010926002109274
:1006D000820210925F02DF91CF911F910F91FF90E4
:1006E000EF90DF90CF9008959D9191938F5F6DCFA4
:1006F00085EEA9CF80915B0290915C02A0915D0292
:10070000B0915E02892B8A2B8B2B09F4A2CF0E9419
:10071000EF0000915B0210915C0220915D0230912C
:100720005E026C197D098E099F09061717072807B5
:10073000390708F08ECFC4CF80E0C7CF82E0C5CFA5
:1007400083E0C3CF0895E091230280912202E8174D
:1007500030F4F0E0E654FE4F808190E008958FEF92
:100760009FEF089590912302809122022FEF3FEF97
:10077000981748F4E92FF0E0E654FE4F208130E06E
:100780009F5F90932302C901089580912202909166
:100790002302891B990B0895CF92DF92EF92FF926B
:1007A0000F931F93CF93DF937C01CB018A0120919C
:1007B0005F02222389F0EB016B01C40ED51ECC151C
:1007C000DD0569F06991D701ED91FC910190F0810F
:1007D000E02DC7010995F3CF642F0E945502C8018F
:1007E000DF91CF911F910F91FF90EF90DF90CF900D
:1007F0000895CF93DF931F92CDB7DEB76983209121
:100800005F022223F9F020918202203258F021E089
:1008100030E0FC013383228390E080E00F90DF9191
:10082000CF91089580916002E82FF0E0EF59FD4FDD
:10083000998190838F5F809360028093820281E030
:1008400090E0ECCF61E0CE0101960E945502F7CF17
:10085000682F80E293E00C94F903682F80E293E024
:100860000C94F903EF92FF920F931F93CF93DF93B2
:1008700080912F0291E090935F0280938102109209
:1008800060021092820290E080E00E94280410E052
:1008900007E0809131028823C9F1802F811B90E00D
:1008A000880F991F20912D0230912E02820F931FE5
:1008B000FC01C081D18180913202882379F020E14E
:1008C00090E080E0880F991FAE0141705527842B7E
:1008D000952BD695C7952150A9F7EC017E01FF24F1
:1008E000809130028823A1F08D2F90E00E942D048A
:1008F000C7010E942D041F5F183059F6DF91CF9178
:100900001F910F91FF90EF900C94BB02812FC7CFE6
:10091000C7010E942D048D2F90E0EBCF462F90E071
:10092000880F991FE0914103F0914203E80FF91FEE
:100930008081618190914303992311F091E04927CF
:100940000E9482000C94320490E080E00895FC0143
:1009500001900020E9F73197AF01481B590BBC010A
:1009600083E892E00C94480185ED8093BC0080916F
:100970005B0290915C02A0915D02B0915E020796CD
:10098000A11DB11D23E0B695A795979587952A954A
:10099000D1F72091BC0024FD03C0109259020895A4
:1009A00040915B0250915C0260915D0270915E0229
:1009B000452B462B472B69F30097A105B10541F064
:1009C0002AE22A95F1F700C00197A109B109E1CF08
:1009D00080915A020C949A021F920F920FB60F92B6
:1009E00011242F933F938F939F93AF93BF93809145
:1009F000250290912602A0912702B0912802309101
:100A0000240223E0230F2D3758F50196A11DB11DB7
:100A1000209324028093250290932602A09327021C
:100A2000B09328028091290290912A02A0912B0272
:100A3000B0912C020196A11DB11D809329029093C3
:100A40002A02A0932B02B0932C02BF91AF919F91E9
:100A50008F913F912F910F900FBE0F901F9018957F
:100A600026E8230F0296A11DB11DD2CF1F920F922F
:100A70000FB60F9211242F933F934F935F936F9371
:100A80007F938F939F93AF93BF93EF93FF9383E8ED
:100A900092E00E94C601FF91EF91BF91AF919F91AB
:100AA0008F917F916F915F914F913F912F910F9017
:100AB0000FBE0F901F9018951F920F920FB60F92B6
:100AC00011242F938F939F93EF93FF93E0919302C1
:100AD000F09194028081E0919902F0919A0282FD56
:100AE0001BC0908180919C028F5F8F7320919D022B
:100AF000821741F0E0919C02F0E0ED57FD4F958F99
:100B000080939C02FF91EF919F918F912F910F9075
:100B10000FBE0F901F9018958081F4CF1F920F92F7
:100B20000FB60F9211242F933F934F935F936F93C0
:100B30007F938F939F93AF93BF93EF93FF93809196
:100B4000B900887F803609F44AC0F0F5883209F48C
:100B5000A7C018F5803109F49BC0B8F4882309F4C4
:100B6000F9C0883009F494C0FF91EF91BF91AF9123
:100B70009F918F917F916F915F914F913F912F91B5
:100B80000F900FBE0F901F901895883109F488C000
:100B9000803251F78093570214C0803409F49DC00D
:100BA00040F48033B9F38833F9F68093570285EC2B
:100BB000B0C0803509F485C0883509F496C0883402
:100BC00099F60E94B404D0CF883909F48CC038F566
:100BD000883729F050F4883611F0803729F683E001
:100BE0008093590210921D0257C0883809F47BC0C7
:100BF000803919F0803809F0B7CF80911D0280321A
:100C000008F071C0E0911D0281E08E0F80931D02FB
:100C10008091BB00F0E0E350FE4F80833DC0803BFD
:100C200039F0E0F4803A09F479C0883A09F09CCFB1
:100C300084E0809359021092FC011092FB01E09134
:100C40002002F091210209958091FB0181110FC0D2
:100C500081E08093FB011092DB0109C0803C09F424
:100C6000A6CF883C09F4A3CF883B09F07DCFE09163
:100C7000FC0181E08E0F8093FC01F0E0E552FE4F15
:100C800080818093BB009091FC018091FB0129C081
:100C9000809134028093BB0085EC8093BC0064CFCC
:100CA0009091560280915502981758F5E09156029E
:100CB00081E08E0F80935602F0E0EB5CFD4F808167
:100CC000E9CFE091560281E08E0F80935602809129
:100CD000BB00F0E0EB5CFD4F808390915602809169
:100CE00055029817C8F285E8D8CFE091560281E006
:100CF0008E0F809356028091BB00F0E0EB5CFD4FBD
:100D000080838091580281115CCF81E0809333020F
:100D100084EA8093BC001092590226CF85EC809320
:100D2000BC001092590280911D02803230F4E09193
:100D30001D02F0E0E350FE4F108260911D0270E052
:100D4000E0911E02F0911F028DEF91E00995109243
:100D50001D020ACF1092570234CFE3E8F2E013826B
:100D6000128288EE93E0A0E0B0E084839583A683AE
:100D7000B78322E431E03183208325EC30E03587EE
:100D8000248724EC30E03787268720EC30E0318B55
:100D9000208B21EC30E0338B228B22EC30E0358B42
:100DA000248B26EC30E0378B268B118E128E138E1F
:100DB000148EE0E2F3E01382128284839583A6838B
:100DC000B78384E591E091838083ECE2F3E082E3F2
:100DD00090E0A0E0B0E084839583A683B78384ECA1
:100DE00099E0A0E0B0E080879187A287B38781E097
:100DF0008487108E0895CF93DF93CDB7DEB7A19788
:100E00000FB6F894DEBF0FBECDBF789484B5826074
:100E100084BD84B5816084BD85B5826085BD85B59E
:100E2000816085BD80916E00816080936E0010921C
:100E30008100809181008260809381008091810097
:100E40008160809381008091800081608093800028
:100E50008091B10084608093B1008091B000816086
:100E60008093B00080917A00846080937A008091B2
:100E70007A00826080937A0080917A00816080930A
:100E80007A0080917A00806880937A001092C10085
:100E9000E0919302F091940282E08083E0918F02CE
:100EA000F09190021082E0919102F09192028FEC09
:100EB000808310929B02E0919702F091980286E065
:100EC0008083E0919502F091960280818061808319
:100ED000E0919502F0919602808188608083E09194
:100EE0009502F0919602808180688083E09195025E
:100EF000F091960280818F7D808382E691E00E944E
:100F0000A7048EE791E00E94A70486E091E0909309
:100F100042038093410310924303109230021092D7
:100F200031021092320280E780932F0262E070E07B
:100F300088E090E00E94920890932E0280932D0208
:100F400010922302109222021092600210928202EA
:100F50000E947C0286E491E090932102809320021B
:100F600087E491E090931F0280931E0280912F02EC
:100F700091E090935F028093810281E290E00E9471
:100F800028040E94BB02E0912D02F0912E02CF01B5
:100F90004096119211928E179F07D9F70E94320442
:100FA00080912F0211E010935F02809381021092D2
:100FB00060021092820281E890E00E9428040E9460
:100FC000BB0280912F0210935F02809381021092E6
:100FD0006002109282028FEE90E00E9428040E942C
:100FE000BB020E94320468EE73E080E090E00E9451
:100FF000140180912F0210935F028093810210925E
:101000006002109282028AEE90E00E9428040E9400
:10101000BB0281E891E00E94A7048EE791E00E9464
:10102000A7048AE0482E512C612C712C90E0A92E47
:1010300090E0B92EC12CD12C76018CEA91E00E946F
:10104000A70419A2A70196018E010F5D1F4FCA01C7
:10105000B901A30192010E946A08605DF8016293E0
:101060008F01211531054105510589F7309719F098
:10107000CF010E94A7048EE791E00E94A70461E0DF
:101080008C2D0E948E0464E670E080E090E00E9467
:10109000140160E08C2D0E948E04FFEFCF1ADF0A4E
:1010A000EF0AFF0A8CE1C816D104E104F10429F625
:1010B00068EE73E080E090E00E941401A114B10496
:1010C00009F4B8CF0E94B201882309F4B3CF0E947B
:1010D0000000B0CFA1E21A2EAA1BBB1BFD010DC060
:1010E000AA1FBB1FEE1FFF1FA217B307E407F507D8
:1010F00020F0A21BB30BE40BF50B661F771F881FB4
:10110000991F1A9469F760957095809590959B0149
:10111000AC01BD01CF010895EE0FFF1F0590F491C2
:10112000E02D09940F931F93CF93DF93869F800147
:10113000879F100D969F100D1124C8010E94AE08C4
:10114000EC01009729F0A80170E060E00E94D3094B
:10115000CE01DF91CF911F910F9108950F931F93AF
:10116000CF93DF938230910510F482E090E0E0911C
:101170004703F091480330E020E0B0E0A0E0309772
:1011800099F42115310509F44AC0281B390B243084
:101190003105D8F58A819B816115710589F1FB01C3
:1011A00093838283FE0111C04081518102811381AA
:1011B00048175907E0F04817590799F4109761F05C
:1011C00012960C93129713961C933296CF01DF91CF
:1011D000CF911F910F9108950093470310934803F7
:1011E000F4CF2115310551F04217530738F0A9010A
:1011F000DB019A01BD01DF01F801C1CFEF01F9CF99
:101200009093480380934703CDCFFE01E20FF31F75
:10121000819391932250310939832883D7CF20912C
:10122000450330914603232B41F420910201309174
:101230000301309346032093450320910001309130
:1012400001012115310541F42DB73EB7409104014C
:1012500050910501241B350BE0914503F0914603A5
:10126000E217F307A0F42E1B3F0B2817390778F07D
:10127000AC014E5F5F4F2417350748F04E0F5F1FDC
:101280005093460340934503819391939FCFF0E0A1
:10129000E0E09CCFCF93DF930097E9F0FC01329719
:1012A00013821282A0914703B0914803ED0130E010
:1012B00020E01097A1F420813181820F931F2091AB
:1012C0004503309146032817390709F061C0F093B0
:1012D0004603E0934503DF91CF910895EA01CE17CD
:1012E000DF07E8F54A815B819E0141155105B1F7A1
:1012F000E901FB83EA8349915991C40FD51FEC178B
:10130000FD0761F4808191810296840F951FE901A8
:1013100099838883828193819B838A83F0E0E0E0D4
:1013200012968D919C9113970097B9F52D913C9150
:101330001197CD010296820F931F209145033091A2
:1013400046032817390739F6309751F510924803AC
:1013500010924703B0934603A0934503BCCFD383B9
:10136000C28340815181840F951FC817D90761F44A
:101370004E5F5F4F88819981480F591F5183408389
:101380008A819B81938382832115310509F0B0CF37
:10139000F0934803E09347039ECFFD01DC01C0CFEB
:1013A00013821282D7CFDC0101C06D9341505040AF
:1013B000E0F70895F894FFCF000049038000000093
:1013C000000100020003010001010102010302000B
:1013D00002010202020303000301030203030400EB
:1013E00004010402040305000501050205030600CB
:1013F00006010602060300000000E801480175012D
:101400003502A6018401980100000000F903CC0315
:10141000A404A203C503B203A303537461727469E5
:101420006E67204C454420576972696E6720546589
:1014300073742E2E2E000D0A004261726772617065
:101440006820496E697469616C697A65642E2053FD
:1014500074617274696E672073657175656E63651A
:101460002E2E2E0054657374696E67204C45443AE5
:0214700020005A
:107800000C94343C0C94513C0C94513C0C94513CE1
:107810000C94513C0C94513C0C94513C0C94513CB4
:107820000C94513C0C94513C0C94513C0C94513CA4
:107830000C94513C0C94513C0C94513C0C94513C94
:107840000C94513C0C94513C0C94513C0C94513C84
:107850000C94513C0C94513C0C94513C0C94513C74
:107860000C94513C0C94513C11241FBECFEFD8E036
:10787000DEBFCDBF11E0A0E0B1E0ECE9FFE702C060
:1078800005900D92A230B107D9F712E0A2E0B1E065
:1078900001C01D92AD30B107E1F70E942D3D0C945F
:1078A000CC3F0C94003C982F959595959595959582
:1078B000905D8F708A307CF0282F295A8091C0000B
:1078C00085FFFCCF9093C6008091C00085FFFCCF60
:1078D0002093C6000895282F205DF0CF982F809127
:1078E000C00085FFFCCF9093C6000895EF92FF92F1
:1078F0000F931F93EE24FF2487018091C00087FD22
:1079000017C00894E11CF11C011D111D81E4E8164B
:1079100082E4F8068FE0080780E0180770F3E09132
:107920000401F091050109958091C00087FFE9CF1E
:107930008091C6001F910F91FF90EF9008950E94D3
:10794000763C982F8091C00085FFFCCF9093C600B5
:1079500091362CF490330CF09053892F089597555D
:10796000892F08951F930E949F3C182F0E949F3CCF
:107970001295107F810F1F9108951F93182F882350
:1079800021F00E94763C1150E1F71F9108951F935A
:10799000182F0E94763C803249F0809103018F5F5E
:1079A000809303018530C1F01F9108958091C0003C
:1079B00085FFFCCF84E18093C6008091C00085FFE5
:1079C000FCCF1093C6008091C00085FFFCCF80E102
:1079D0008093C6001F910895E0910401F091050184
:1079E00009951F9108950E94763C803241F0809164
:1079F00003018F5F80930301853081F008958091AA
:107A0000C00085FFFCCF84E18093C6008091C00058
:107A100085FFFCCF80E18093C6000895E0910401CA
:107A2000F09105010995089540E951E08823A1F0FE
:107A30002D9A28EE33E0FA013197F1F721503040CA
:107A4000D1F72D9828EE33E0FA013197F1F7215064
:107A50003040D1F7815061F708953F924F925F9285
:107A60006F927F928F929F92AF92BF92CF92DF924E
:107A7000EF92FF920F931F93CF93DF93000080E16B
:107A80008093C4001092C50088E18093C10086E015
:107A90008093C2005098589A259A81E00E94143D24
:107AA00024E1F22E9EE1E92E85E9D82E0FE0C02ECA
:107AB00010E1B12EAA24A394B1E49B2EA6E58A2E50
:107AC000F2E57F2EE0E26E2E79E4572E63E5462E36
:107AD00050E5352E0E94763C8033B1F18133B9F107
:107AE000803409F46FC0813409F476C0823409F41B
:107AF00085C0853409F488C0803531F1823521F1A3
:107B0000813511F1853509F485C0863509F48DC0BC
:107B1000843609F496C0843709F403C1853709F423
:107B200072C1863709F466C0809103018F5F80932C
:107B30000301853079F6E0910401F0910501099582
:107B40000E94763C803351F60E94F33CC3CF0E94E2
:107B5000763C803249F78091C00085FFFCCFF092DF
:107B6000C6008091C00085FFFCCF9092C600809136
:107B7000C00085FFFCCF8092C6008091C00085FFC9
:107B8000FCCF7092C6008091C00085FFFCCF609250
:107B9000C6008091C00085FFFCCF5092C600809146
:107BA000C00085FFFCCF4092C6008091C00085FFD9
:107BB000FCCF3092C6008091C00085FFFCCFB09210
:107BC000C60088CF0E94763C863808F4BDCF0E945C
:107BD000763C0E94F33C7ECF0E94763C803809F4CC
:107BE0009CC0813809F40BC1823809F43CC1883942
:107BF00009F48FC080E00E94C73C6CCF84E10E94F2
:107C0000BD3C0E94F33C66CF85E00E94BD3C0E94D3
:107C1000F33C60CF0E94763C809306010E94763C44
:107C2000809307010E94F33C55CF0E94763C80333D
:107C300009F41DC183E00E94BD3C80E00E94C73C66
:107C400049CF0E94763C809309020E94763C809343
:107C5000080280910C028E7F80930C020E94763C79
:107C6000853409F415C18091080290910902892B8D
:107C700089F000E010E00E94763CF801E85FFE4FDA
:107C800080830F5F1F4F80910802909109020817AF
:107C9000190788F30E94763C803209F045CF809125
:107CA0000C0280FF01C16091060170910701660F0F
:107CB000771F7093070160930601A0910802B091AD
:107CC00009021097C9F0E8E0F1E09B01AD014E0F09
:107CD0005F1FF999FECF32BD21BD819180BDFA9A17
:107CE000F99A2F5F3F4FE417F50799F76A0F7B1F4B
:107CF00070930701609306018091C00085FFFCCF5F
:107D0000F092C6008091C00085FFFCCFB092C60003
:107D1000E1CE83E00E94C73CDDCE82E00E94C73CFA
:107D2000D9CE0E94763C809309020E94763C8093D3
:107D300008028091060190910701880F991F909386
:107D40000701809306010E94763C853409F4A6C0A1
:107D500080910C028E7F80930C020E94763C8032D0
:107D600009F0B8CE8091C00085FFFCCFF092C6002C
:107D7000609108027091090261157105B9F140E046
:107D800050E080910C02A82FA170B82FB27011C0E2
:107D9000BB2309F45CC0E0910601F0910701319624
:107DA000F0930701E09306014F5F5F4F46175707B7
:107DB000E8F4AA2369F3F999FECF209106013091E6
:107DC000070132BD21BDF89A90B58091C00085FFB2
:107DD000FCCF9093C6002F5F3F4F30930701209355
:107DE00006014F5F5F4F4617570718F38091C00099
:107DF00085FDE5CE8091C00085FFF8CFE0CE81E023
:107E00000E94C73C67CE0E94763C803209F08CCE3F
:107E10008091C00085FFFCCFF092C6008091C00029
:107E200085FFFCCFE092C6008091C00085FFFCCFAB
:107E3000D092C6008091C00085FFFCCFC092C600E2
:107E40008091C00085FFFCCFB092C60043CEE09188
:107E50000601F091070194918091C00085FFFCCF4D
:107E60009093C6009CCF80E10E94C73C33CE0E9415
:107E7000763C0E94763C182F0E94763C112309F430
:107E800083C0113009F484C08FE00E94C73C22CE29
:107E900080910C02816080930C02E5CE80910C02EF
:107EA000816080930C0259CF809107018823880F4D
:107EB000880B8A2180930B02809106019091070123
:107EC000880F991F90930701809306018091080203
:107ED00080FF09C080910802909109020196909359
:107EE000090280930802F894F999FECF1127E091D6
:107EF0000601F0910701C8E0D1E08091080290915D
:107F00000902103091F40091570001700130D9F34B
:107F100003E000935700E89500915700017001308D
:107F2000D9F301E100935700E89509901990009169
:107F3000570001700130D9F301E000935700E89534
:107F40001395103498F011270091570001700130FB
:107F5000D9F305E000935700E895009157000170B0
:107F60000130D9F301E100935700E895329602976A
:107F700009F0C7CF103011F00296E5CF112480919F
:107F8000C00085FFB9CEBCCE8EE10E94C73CA2CD19
:0E7F900085E90E94C73C9ECDF894FFCF80008B
:00000001FF
