:100000000C9407020C942F020C942F020C941218DB
:100010000C9412180C9412180C942F020C942F02AA
:100020000C942F020C942F020C942F020C942F028C
:100030000C942F020C942F020C942F020C942F027C
:100040000C9451160C942F020C94C1160C949B1610
:100050000C942F020C942F020C942F020C942F025C
:100060000C94F3160C942F02000000000000000016
:10007000000000000101010100000000000000007C
:10008000000000000000000000000000000000016F
:10009000010101010100000000000000000000005B
:1000A000000000000000000000000101010101014A
:1000B000010100000000000000000000000000003E
:1000C0000000000000010101010000010101010028
:1000D0000000000000000000000000000000000020
:1000E0000101010100000000010101010000000008
:1000F00000000000000000000000000101010100FC
:1001000000000000000101010100000000000000EB
:1001100000000000000001010101000000000000DB
:1001200000000101010100000000000000000000CB
:1001300000010101010000000000000000000001BA
:1001400001010100000000000000000001010101A8
:10015000000000000000000000000000010101019B
:10016000000000000000000101010100000000008B
:10017000000000000000000000010101010000007B
:10018000000001010101000000000000000000006B
:100190000000000000000101010100000001010158
:1001A000010000000000000000000000000000004E
:1001B0000000000101010100010101010000000037
:1001C000000000000000000000000000000000002F
:1001D0000101010101010100000000000000000018
:1001E000000000000000000000000000000101010C
:1001F00001010000000000000000000000000000FD
:1002000000000000000000000000010101000000EB
:1002100000000000000000000000000000000000DE
:1002200000000000000000010000000000000000CD
:1002300000000000010101010000000000000000BA
:1002400000000000000000000000000000000001AD
:10025000010000010100000000000000000000009B
:10026000000000000000000000000101000000008C
:10027000010100000000000000000000000000007C
:10028000000000000001010000000000000101006A
:10029000000000000000000000000000000000005E
:1002A000010100000000000000000101000000004A
:1002B000000000000000000000000001010000003C
:1002C000000000000000000101000000000000002C
:1002D000000000000000010100000000000000001C
:1002E000000000000101000000000000000000000C
:1002F00000010100000000000000000000000000FC
:1003000000010100000000000000000001010000E9
:1003100000000000000000000000000000000101DB
:1003200000000000000000010100000000000000CB
:1003300000000000000000000000000101000000BB
:1003400000000101000000000000000000000000AB
:100350000000000000000000010100000001010099
:10036000000000000000000000000000000000008D
:100370000000000000010100010100000000000079
:10038000000000000000000000000000000000006D
:10039000000001010100000000000000000000005A
:1003A000000000000000000000000000000000014C
:1003B00000000000240027002A00000000080002BE
:1003C000010000030407000000000000000000001E
:1003D000000023002600290000000000250028005E
:1003E0002B000404040404040404020202020202B6
:1003F00003030303030301020408102040800102E9
:1004000004081020010204081020031920281124D8
:100410001FBECFEFD8E0DEBFCDBF12E0A0E0B1E05D
:10042000E6EBF8E502C005900D92A23AB107D9F7C4
:1004300025E0A2EAB2E001C01D92A73EB207E1F7B3
:1004400012E0C6E0D2E004C02197FE010E94E62A35
:10045000C530D107C9F70E945E1A0C944E2C0C943B
:1004600000008091E0049091E104039709F054C0EA
:100470008091FF0490910005FC01EE0FFF1FE85EE4
:10048000FA4F208131812130310551F4209114053A
:10049000309115052F5F3F4F3093150520931405BC
:1004A0000196909300058093FF04209102053091FE
:1004B00003058217930780F1109200051092FF0444
:1004C00010921505109214058091FA048430C1F43D
:1004D0008091060590910705A0910805B091090546
:1004E0000097AF4FB10599F480E09FEFA0E0B0E036
:1004F0008093060590930705A0930805B09309051E
:10050000E0916905F0916A05309731F0099480E037
:1005100090E0AFEFB0E0ECCF08952091E20430918D
:10052000E304809101052530310509F45CC0409158
:10053000E4045091E504452BB1F48F5F80930105ED
:1005400020910405309105058217130658F080911B
:10055000170580930105E0916B05F0916C053097CC
:1005600009F040C008958150809301052230310583
:1005700011F5209110053091110590E0821B930B2D
:100580004091170548171906B1F0A8F080910405AD
:100590008150809301052F5F3F4F309311052093C9
:1005A00010052F30310539F4E0916B05F0916C05A1
:1005B000309709F00995809101058111D3CF809181
:1005C0000405815080930105E0916B05F0916C0565
:1005D000309741F21092E1041092E0041092E3048B
:1005E0001092E20409948F5F809301052091040525
:1005F000309105058217130608F4B4CF1092010557
:10060000AACF4F925F926F927F928F929F92AF92FA
:10061000BF92EF92FF92CF93DF932091CC04309161
:10062000CD048217930708F0E5C06091D80470915B
:10063000D5044091D3045091D4048090D204262F45
:1006400030E0E091D604F0E0A091D704B0E0671369
:1006500064C0BC01660F771F860F971F480F591F94
:10066000240F351FE9012881E40FF51FF080A40F46
:10067000B51FCC91882009F445C0912CB12CA12C38
:10068000622F70E0762F6627072E000C880B990BDF
:10069000A50194010E94C42A3901552444246F2DD8
:1006A00070E0762F6627072E000C880B990BA501AA
:1006B00094010E94C42AB42FA32F922F8827482A7E
:1006C000592A6A2A7B2A6C2F70E0762F6627072E1C
:1006D000000C880B990BA50194010E94C42AC30148
:1006E000B201622B732B842B952BDF91CF91FF905E
:1006F000EF90BF90AF909F908F907F906F905F90A2
:100700004F9008956F2D70E090E080E0982F872F34
:10071000762F6627822B6C2BE8CF880F991F880FC6
:10072000991F840F951F280F391FE9013881EC01AB
:10073000C70FD11DF880E80FF91FC081A80FB91F9E
:10074000EC90882009F44BC0912CB12CA12C632F84
:1007500070E0762F6627072E000C880B990BA501F9
:1007600094010E94C42A722E6624552444246F2DBD
:1007700070E0762F6627072E000C880B990BA501D9
:1007800094010E94C42AA90133272227422A532A0E
:10079000642A752A6E2D70E0762F6627072E000CCE
:1007A000880B990BA50194010E94C42A422A532A5E
:1007B000642A752A6C2F70E0762F6627072E000CAE
:1007C000880B990BA50194010E94C42A942F832FB2
:1007D000722F6627642975298629972986CF6F2D60
:1007E00070E090E080E0CB0177276627932B6E299D
:1007F0007C2B7BCF60E070E0CB0177CFE3E8F5E0C6
:1008000083819481890F9927991F2581820F911DDA
:100810002681280F392F311D8781280F311D8085B2
:10082000820F932F911D91958195910991878287D0
:100830000895677070E0660F771FE091A103F09153
:10084000A203E60FF71F20813181582F5F7081E0EE
:1008500090E002C0880F991F5A95E2F740FF05C04B
:10086000822B932B9183808308958095909582238A
:100870009323F8CF833081F028F4813099F08230CF
:10088000A9F008958730A9F08830C9F08430B1F418
:10089000809180008F7D03C0809180008F7780934E
:1008A0008000089584B58F7784BD089584B58F7DC9
:1008B000FBCF8091B0008F778093B0000895809136
:1008C000B0008F7DF9CFCF93DF93282F30E0F9016F
:1008D000E654FC4F8491F901EA50FC4FD491F901A0
:1008E000EE51FC4FC491CC23A1F081110E943A0437
:1008F000EC2FF0E0EE0FFF1FE253FC4FA591B491F7
:10090000EC91ED2381E090E009F480E0DF91CF915C
:10091000089580E090E0FACF1F93CF93DF93282FC4
:1009200030E0F901E654FC4F8491F901EA50FC4FA4
:10093000D491F901EE51FC4FC491CC23A9F0162FAC
:1009400081110E943A04EC2FF0E0EE0FFF1FE852F5
:10095000FC4FA591B4918FB7F894EC91111108C098
:10096000D095DE23DC938FBFDF91CF911F91089547
:10097000DE2BF8CFCF93DF9390E0FC01EA50FC4FE1
:1009800024918E519C4FFC0184918823D1F090E0FA
:10099000880F991FFC01E055FC4FA591B491FC0113
:1009A000E852FC4FC591D49161110EC09FB7F894E5
:1009B0008C91E22FE0958E238C932881E223E883AB
:1009C0009FBFDF91CF9108958FB7F894EC91E22B00
:1009D000EC938FBFF6CF3FB7F89480919D03909131
:1009E0009E03A0919F03B091A00326B5A89B05C0CC
:1009F0002F3F19F00196A11DB11D3FBFBA2FA92F9E
:100A0000982F8827BC01CD01620F711D811D911D9A
:100A100042E0660F771F881F991F4A95D1F7089506
:100A20008F929F92AF92BF92CF92DF92EF92FF92FE
:100A30004B015C010E94EB046B017C010E94EB0402
:100A40006C197D098E099F09683E734081059105E7
:100A5000A8F321E0821A9108A108B10888EEC80E17
:100A600083E0D81EE11CF11C81149104A104B1049F
:100A700029F7FF90EF90DF90CF90BF90AF909F90BD
:100A80008F9008952FB7F8946091990370919A030D
:100A900080919B0390919C032FBF08950895089522
:100AA000AF92BF92CF92DF92EF92FF920F931F937C
:100AB000CF93DF936C017B018B01040F151FEB01BA
:100AC0005E01AE18BF08C017D10759F06991D60171
:100AD000ED91FC910190F081E02DC6010995892BE3
:100AE00079F7C501DF91CF911F910F91FF90EF90A2
:100AF000DF90CF90BF90AF900895FC01538D448D4F
:100B0000252F30E0842F90E0821B930B541710F0B8
:100B1000CF96089501970895FC01918D828D9817C5
:100B200061F0A28DAE0FBF2FB11D5D968C91928D9D
:100B30009F5F9F73928F90E008958FEF9FEF0895CE
:100B4000FC01918D828D981731F0828DE80FF11D97
:100B5000858D90E008958FEF9FEF0895FC01918DB2
:100B6000228D892F90E0805C9F4F821B91098F73AB
:100B70009927089580E194E00E94AE0521E0892B39
:100B800009F420E0822F089580E090E0892B29F07D
:100B90000E94BA0581110C9400000895FC01A48DF7
:100BA000A80FB92FB11DA35ABF4F2C91848D90E08F
:100BB00001968F739927848FA689B7892C93A08972
:100BC000B1898C91837080648C93938D848D9813FC
:100BD00006C00288F389E02D80818F7D808308958F
:100BE000EF92FF920F931F93CF93DF93EC0181E07D
:100BF000888F9B8D8C8D98131AC0E889F989808124
:100C000085FF15C09FB7F894EE89FF896083E88956
:100C1000F98980818370806480839FBF81E090E048
:100C2000DF91CF911F910F91FF90EF900895F62ED5
:100C30000B8D10E00F5F1F4F0F731127E02E8C8D6F
:100C40008E110CC00FB607FCFACFE889F9898081B4
:100C500085FFF5CFCE010E94CE05F1CFEB8DEC0FD5
:100C6000FD2FF11DE35AFF4FF0829FB7F8940B8FD1
:100C7000EA89FB8980818062CFCF60E280E194E0E5
:100C80000C94F005CF93DF93EC01888D8823B9F0A5
:100C9000AA89BB89E889F9898C9185FD03C0808187
:100CA00086FD0DC00FB607FCF7CF8C9185FFF2CF04
:100CB000808185FFEDCFCE010E94CE05E9CFDF9187
:100CC000CF91089520912903260F3327331F213216
:100CD0003105ECF42091CD03FC0190E080E024305C
:100CE00069F082E00895A09129032191AC01475F4A
:100CF0005C4FA40FB52FB11D2C930196861798F366
:100D000080912903680F6093290380E0089581E0B2
:100D100008951092CD0381E08093CC031092A70335
:100D200061E082E10E948C0461E083E10E948C0416
:100D3000E9EBF0E080818E7F808380818D7F8083EE
:100D400088E48093B80085E48093BC000895CF9335
:100D5000DF9391E0909308038823B9F0C091B80025
:100D6000D091BA008091BC008A7B8093BC0060E087
:100D700082E10E948C0460E083E10E948C040E9466
:100D80008906D093BA00C093B800DF91CF9108953F
:100D9000CF92DF92EF92FF920F931F93CF93DF9347
:100DA000D091F60381E0D13208F09CC0C091F503E8
:100DB0000E94EB046B017C018091CD0381116CC01A
:100DC00082E08093CD0381E08093CC038FEF80930A
:100DD000CB031092CA03D093C903A5EDB3E0E9EAAF
:100DE000F3E080E0D8138DC01092A8038091A8038F
:100DF000CC0FC82BC093A8038091A703813009F0C2
:100E000084C01092A7030E94EB046B017C018091C7
:100E1000A8038093BB008091CF039091D003A09151
:100E2000D103B091D203892B8A2B8B2BA1F00E9486
:100E3000EB040091CF031091D0032091D1033091A6
:100E4000D2036C197D098E099F0906171707280719
:100E5000390708F442C08091BC0083FDD8CF85ECEF
:100E60008093BC000E94EB046B017C018091CD0358
:100E7000823009F44CC08091CB038F3F09F469C0E4
:100E80008091CB03803209F466C08091CB0380331C
:100E900009F463C084E026C08091CF039091D00311
:100EA000A091D103B091D203892B8A2B8B2B09F40B
:100EB00083CF0E94EB040091CF031091D0032091C7
:100EC000D1033091D2036C197D098E099F09061751
:100ED00017072807390708F06FCF8091CE030E94CB
:100EE000A70685E01092D4031092F6031092D30364
:100EF000DF91CF911F910F91FF90EF90DF90CF90F6
:100F000008959D9191938F5F6DCF85EEA9CF8091CC
:100F1000CF039091D003A091D103B091D203892B3C
:100F20008A2B8B2B09F4A2CF0E94EB040091CF03F4
:100F30001091D0032091D1033091D2036C197D0917
:100F40008E099F09061717072807390708F08ECF63
:100F5000C4CF80E0C7CF82E0C5CF83E0C3CF089580
:100F6000E091550380915403E81730F4F0E0E85124
:100F7000FD4F808190E008958FEF9FEF089590914D
:100F80005503809154032FEF3FEF981748F4E92F52
:100F9000F0E0E851FD4F208130E09F5F90935503D2
:100FA000C90108958091540390915503891B990BB1
:100FB0000895CF92DF92EF92FF920F931F93CF93FA
:100FC000DF937C01CB018A012091D303222389F096
:100FD000EB016B01C40ED51ECC15DD0569F06991DE
:100FE000D701ED91FC910190F081E02DC7010995A9
:100FF000F3CF642F0E946206C801DF91CF911F9149
:101000000F91FF90EF90DF90CF900895CF93DF93F3
:101010001F92CDB7DEB769832091D3032223F9F065
:101020002091F603203258F021E030E0FC013383B8
:10103000228390E080E00F90DF91CF91089580911E
:10104000D403E82FF0E0EB52FC4F998190838F5F3F
:101050008093D4038093F60381E090E0ECCF61E0CD
:10106000CE0101960E946206F7CF682F8DEA94E0C8
:101070000C940608682F8DEA94E00C940608EF9211
:10108000FF920F931F93CF93DF938091A30391E07F
:101090009093D3038093F5031092D4031092F60338
:1010A00090E080E00E94350810E007E08091A50301
:1010B0008823C9F1802F811B90E0880F991F209110
:1010C000A1033091A203820F931FFC01C081D18143
:1010D0008091A603882379F020E190E080E0880FDA
:1010E000991FAE0141705527842B952BD695C79536
:1010F0002150A9F7EC017E01FF248091A4038823ED
:10110000A1F08D2F90E00E943A08C7010E943A0892
:101110001F5F183059F6DF91CF911F910F91FF900B
:10112000EF900C94C806812FC7CFC7010E943A08E0
:101130008D2F90E0EBCFCF92DF92EF92FF920F9343
:101140001F930091D9051091DA052091DB053091AC
:10115000DC056B017C01C01AD10AE20AF30A009196
:10116000D0051091D1052091D2053091D3050C15F1
:101170001D052E053F0570F56093D9057093DA05BE
:101180008093DB059093DC058091CE059091CF058F
:1011900001968C31910568F4880F991FE091E10563
:1011A000F091E205E80FF91F40E0618180810E9423
:1011B00019048091CE059091CF0501979093CF05AA
:1011C0008093CE051F910F91FF90EF90DF90CF900D
:1011D0000C943F081F910F91FF90EF90DF90CF90FC
:1011E0000895CF93DF93D0E0C0E0E091E105F09166
:1011F000E205EC0FFD1F40E0618180810E9419042F
:101200002296C833D10589F7DF91CF910C943F081E
:10121000CF92DF92EF92FF920F931F93CF93DF93C2
:101220000091D9051091DA052091DB053091DC059C
:101230006B017C01C01AD10AE20AF30A0091D005C1
:101240001091D1052091D2053091D3050C151D05C3
:101250002E053F0508F04DC06093D9057093DA055F
:101260008093DB059093DC058091CE059091CF05AE
:1012700018161906BCF0D0E0C0E0E091E105F0914D
:10128000E205EC0FFD1F41E0618180810E9419049D
:101290002296C833D10589F78BE190E09093CF0572
:1012A0008093CE058091CE059091CF058C3191052C
:1012B00068F4880F991FE091E105F091E205E80FCD
:1012C000F91F40E0618180810E9419048091CE0560
:1012D0009091CF0501979093CF058093CE05DF9134
:1012E000CF911F910F91FF90EF90DF90CF900C94D2
:1012F0003F08DF91CF911F910F91FF90EF90DF900A
:10130000CF9008950F931F93CF93DF93EC0121E0CB
:10131000260F6885621729F109851A859FEF960FB8
:1013200070E060E059F0422F50E0542F44274150C4
:101330005109692F70E0CA010E949C2AF8014C8172
:101340005D81CF01801B910B8417950748F4308194
:10135000369FC001379F900D112490833196EFCFB7
:101360002887DF91CF911F910F9108959091FA04F2
:10137000913029F460EF8AEC94E00C94820990E0BB
:10138000B0E0A0E08093E6049093E704A093E80423
:10139000B093E90408958F929F92AF92BF92CF923B
:1013A000DF92EF92FF921F93CF93DF93FC01828134
:1013B000938168177907A8F54A01AA24BB24C82D90
:1013C000C32ED42EE52EFF241C2DD22F80858823FA
:1013D00061F0889E40011124C92D8C9D600111246B
:1013E0001D2D829FD0011124DB2FA685E184F2847C
:1013F0009385A91322C0CB01880F991F680F791F0D
:101400006E0D7F1DA385A60FB72FB11DCC93A485AC
:10141000A60FB72FB11D1C938585680F711DFB01A9
:10142000D083DF91CF911F91FF90EF90DF90CF900D
:10143000BF90AF909F908F900895660F771F660FB3
:10144000771F6E0D7F1D252F3327442755278823AF
:1014500049F090E0829F7001839FF00C929FF00C06
:1014600011242F2DA60FB72FB11D2C93CBCFCF93C7
:101470004093FA0423E030E03093E1042093E00449
:101480002091120530E0309303052093020541308E
:10149000E9F485E090E0A0E0B0E08093E60490936A
:1014A000E704A093E804B093E90410920F051092AA
:1014B0000E05109268051092FB044230E9F078F0B6
:1014C0004330D9F14430F1F1CF9108956093E604AF
:1014D0007093E7048093E8049093E904E6CF80E0FA
:1014E00090E0AFEFB0E08093060590930705A093DE
:1014F0000805B0930905E8CF80E09FEFA0E0B0E0D9
:101500008093060590930705A0930805B0930905FD
:10151000C0E080911705C817B8F6209106053091F4
:10152000070540910805509109056C2F70E08AEC81
:1015300094E00E94CB09CF5FECCF80E09EE7A1E86A
:10154000B0E0D1CF80E09FEFA0E0B0E0CCCF4F92F1
:101550005F926F927F928F929F92AF92BF92CF9243
:10156000DF92EF92FF921F93CF93DF93CDB7DEB759
:101570002A970FB6F894DEBF0FBECDBF162F5A873D
:10158000498720910E0530910F05232B09F051C09A
:1015900010920C0410920D0410920E0410920F047D
:1015A000109208041092090410920A0410920B047D
:1015B000109204041092050410920604109207047D
:1015C00010920304682F70E090E080E00E946A2986
:1015D00020E030E048E453E40E94C7286093FF0312
:1015E000709300048093010490930204612F70E0D3
:1015F00090E080E00E946A2920E030E048E453E473
:101600000E94C7286093FB037093FC038093FD0343
:101610009093FE031092F7031092F8031092F903CF
:101620001092FA0381E090E090930F0580930E05ED
:10163000DDC0C090FF03D0900004E0900104F09062
:10164000020420910C0430910D0440910E0450913D
:101650000F04C701B6010E945B284B015C01809218
:101660000C0490920D04A0920E04B0920F0480918D
:10167000FB039091FC03A091FD03B091FE038983CD
:101680009A83AB83BC832091080430910904409174
:101690000A0450910B04BC01CD010E945B282B0170
:1016A0003C01409208045092090460920A0470922E
:1016B0000B048091F7039091F803A091F903B09186
:1016C000FA038D839E83AF83B88720910404309101
:1016D00005044091060450910704BC01CD010E940D
:1016E0005B28609304047093050480930604909330
:1016F00007040E943929162FC301B2010E9439291B
:10170000562EC501B4010E943929662E852C912CD4
:10171000B12CA12CBA2CA92C982C8824A628812A7B
:10172000712C672D70E0A985BA85A617B70744F01C
:10173000A50194018AEC94E00E94CB097394F1CF47
:1017400080910E0590910F05019690930F0580935F
:101750000E05883C91050CF449C081E08093FB04A0
:101760008FEF860D813388F4B12C6B2D70E0898565
:101770009A85861797074CF020E030E0A9018AECA3
:1017800094E00E94CB09B394F0CF8FEF850D8133A5
:1017900088F4B12C6B2D70E0A985BA85A617B70720
:1017A0004CF020E030E0A9018AEC94E00E94CB09E3
:1017B000B394F0CF1150113388F410E0612F70E032
:1017C00089859A85861797074CF020E030E0A901BB
:1017D0008AEC94E00E94CB091F5FF0CF8091030454
:1017E0008823D1F010920F0510920E052A960FB69D
:1017F000F894DEBF0FBECDBFDF91CF911F91FF9058
:10180000EF90DF90CF90BF90AF909F908F907F90A0
:101810006F905F904F90089581E080930304F7FAF2
:10182000F094F7F8F094C092FF03D0920004E09295
:101830000104F092020489819A81AB81BC81B05885
:101840008093FB039093FC03A093FD03B093FE03EE
:101850008D819E81AF81B885B0588093F7039093B6
:10186000F803A093F903B093FA03DCCECF92DF9292
:10187000EF92FF920F931F93CF93DF93CDB7DEB715
:1018800029970FB6F894DEBF0FBECDBF8C01DC01E7
:1018900019968D919C91892B09F473C00E94EB04D9
:1018A000F801C784D088E188F2886C157D058E0523
:1018B0009F0520F46787708B818B928BF801C7841A
:1018C000D088E188F2886C197D098E099F096C32F5
:1018D00071408105910510F3F894D80114968D910B
:1018E0009C9115979A8389831996ED91FC917F01BC
:1018F000BFEFEB1AFB0A80818987F801908103888A
:10190000F489E02DD80155968C91992309F448C0AB
:101910009081982B98879081809589238F838F81E0
:101920008C8388E08B8358856F8149853B812C812E
:1019300089819A81D701508347FD252F3A952083CD
:10194000262F39F0441F00C000006083000000C053
:10195000F2CF38E04D9160830000019761F7D80124
:101960005496FC93EE93539749873B832C839A8339
:10197000898378940E94EB04F8016787708B818BD0
:10198000928B29960FB6F894DEBF0FBECDBFDF91C4
:10199000CF911F910F91FF90EF90DF90CF9008951E
:1019A0009081982B98879081809589238F838F8150
:1019B0008E8388E08D8358856F8149853D812E8196
:1019C00089819A81D701508347FD252F00C000C02F
:1019D000208300C000C000C000C000C060830000C1
:1019E000262F3A9541F0441F000000C000C000C0FF
:1019F00000C000C0E8CF38E04D9100C0608300C057
:101A0000019709F7D8015496FC93EE9353974987B1
:101A10003D832E83ACCFCF93DF93EC018E819F81EA
:101A200097FD07C061E00E94BA0460E08E810E94C9
:101A30008C0481E08983DF91CF91089520914E033A
:101A400030914F032817390771F490914C0380911E
:101A50004D03981741F0E0914C03F0E0E855FD4F3D
:101A6000808190E008958FEF9FEF0895EF92FF92AD
:101A70000F931F93CF93DF93DC015C96ED90FC9066
:101A80005D97E114F10479F481E090E013969C9362
:101A90008E93129790E080E0DF91CF911F910F918C
:101AA000FF90EF9008955196ED91FC9152975096CA
:101AB0008C915097982F90950FB75E962C915E97CA
:101AC000122F127021FD6095F8942081112319F1D5
:101AD000282B2083E7012197F1F728E0462F50E0DB
:101AE000308160FF1AC0382B3083E7012197F1F76E
:101AF000BA0175956795215089F7112381F080818E
:101B0000892380830FBF5C968D919C910197F1F79B
:101B100081E090E0C1CF2923DCCF3923E5CF90814C
:101B2000892BEFCF20914E0330914F0328173907AF
:101B300061F480914D0320914C0390E0805C9F4FB5
:101B4000821B91098F739927089590E080E0089592
:101B500020914E0330914F0328173907B9F4909123
:101B60004C0380914D03981789F0E0914C03F0E00D
:101B7000E855FD4F808120914C0330E02F5F3F4FAF
:101B80002F73332720934C0390E008958FEF9FEF3E
:101B9000089590E080E008950F931F93462F072F3C
:101BA000682F70E075956795072E000C880B990BD0
:101BB000CB017727662710E015950795012E000CBD
:101BC000220B330B322F212F102F0027602B712B6C
:101BD000822B932B042F10E015950795012E000CF6
:101BE000220B330B602B712B822B932B1F910F91A8
:101BF00008958F929F92AF92BF92CF92DF92EF9211
:101C0000FF920F931F93CF93DF930091A402109143
:101C1000A5022091A6023091A7024B015C01801A17
:101C2000910AA20AB30A9501840102331105210524
:101C3000310538F16093A4027093A5028093A60247
:101C40009093A7020091A2021091A3020230110505
:101C500009F41EC21CF50115110509F411C101306A
:101C6000110509F474C18DE695E00E94360C0F5FF2
:101C70001F4F063011050CF027C31093A3020093E9
:101C8000A202DF91CF911F910F91FF90EF90DF9013
:101C9000CF90BF90AF909F908F9008950430110522
:101CA00009F4ADC20CF47BC205301105E1F6C09118
:101CB0008D03D0918E03CC0FDD1FCC0FDD1FFE01F5
:101CC000E554FE4F80809180A280B3805401992416
:101CD000882488249924BB24FE01E158FE4F80818A
:101CE0009181A281B381BA2FA92F982F8827AA2783
:101CF000BB2788299929AA29BB29FE01E554FE4F53
:101D000020814C015D01822AA50194016AE070E006
:101D10008DE695E00E94CB09FE01E158FE4F20813F
:101D2000318142815381A90133272227222733277A
:101D30005527FE01E554FE4F80819181A281B38138
:101D4000BA2FA92F982F8827AA27BB27822B932B3E
:101D5000A42BB52BFE01E158FE4F20816C017D01C3
:101D6000C22AA70196016BE070E08DE695E00E9423
:101D7000CB09FE01E95AFE4F208131814281538116
:101D8000A90133272227222733275527FE01E559AA
:101D9000FE4F80819181A281B381BA2FA92F982F04
:101DA0008827AA27BB27822B932BA42BB52BFE01B8
:101DB000E158FE4F20816C017D01C22AA7019601E6
:101DC0006CE070E08DE695E00E94CB09FE01E158E1
:101DD000FE4FC080D180E280F3807601DD24CC24E8
:101DE000CC24DD24FF24FE01E158FE4F8081918147
:101DF000A281B381BA2FA92F982F8827AA27BB27A2
:101E00008C299D29AE29BF29FE01E554FE4F208172
:101E10006C017D01C22AA70196016DE070E08DE69C
:101E200095E00E94CB09A50194016EE070E08DE67B
:101E300095E00E94CB09FE01ED56FE4F20813181D5
:101E400042815381A901332722272227332755278F
:101E5000FE01E955FE4F80819181A281B381BA2FA5
:101E6000A92F982F8827AA27BB27822B932BA42B37
:101E7000B52BC554DE4F28814C015D01822A05C176
:101E800080918D0390918E03880F991F880F991F61
:101E9000FC01ED56FE4FC080D180E280F3807601D8
:101EA000DD24CC24CC24DD24FF24FC01E955FE4FA5
:101EB0004081518162817381762F652F542F442791
:101EC00066277727C42AD52AE62AF72A85549E4F03
:101ED000FC018081C82AA70196016AE070E08DE6C6
:101EE00095E00E94CB09A70196016BE070E08DE6BA
:101EF00095E00E94CB0920E030E0A9016CE070E0A1
:101F00008DE695E00E94CB09A70196016DE070E097
:101F10008DE695E00E94CB0920E030E0A9016EE05B
:101F200070E08DE695E00E94CB09A70196016FE075
:101F300070E08DE695E00E94CB0920E030E0A90139
:101F400060E170E08DE695E00E94CB098CCEC091F7
:101F50008D03D0918E03CC0FDD1FCC0FDD1FFE0152
:101F6000E158FE4F2081318142815381A9013327FD
:101F70002227222733275527FE01E158FE4F808173
:101F80009181A281B381BA2FA92F982F8827AA27E0
:101F9000BB27822B932BA42BB52BFE01E554FE4FC0
:101FA00020814C015D01822AA50194016AE070E064
:101FB0008DE695E00E94CB09FE01E95AFE4F808034
:101FC0009180A280B3805401992488248824992484
:101FD000BB24FE01E559FE4F80819181A281B3812E
:101FE000BA2FA92F982F8827AA27BB278829992994
:101FF000AA29BB29FE01E158FE4F20814C015D0159
:10200000822AA50194016BE070E08DE695E00E94C4
:10201000CB09FE01ED56FE4FC080D180E280F380F7
:102020007601DD24CC24CC24DD24FF24FE01E955F7
:10203000FE4F80819181A281B381BA2FA92F982F61
:102040008827AA27BB278C299D29AE29BF29C554DB
:10205000DE4F28816C017D01C22AA70196016CE048
:1020600070E08DE695E00E94CB09A50194016DE03A
:1020700070E08DE695E00E94CB09A70196016EE025
:1020800070E08DE695E00E94CB09A50194017EC029
:10209000C0918D03D0918E03CC0FDD1FCC0FDD1FBF
:1020A000FE01E95AFE4FC080D180E280F3807601C4
:1020B000DD24CC24CC24DD24FF24FE01E559FE4F91
:1020C00080819181A281B381BA2FA92F982F88276F
:1020D000AA27BB278C299D29AE29BF29FE01E158DB
:1020E000FE4F20816C017D01C22AA70196016AE0A2
:1020F00070E08DE695E00E94CB0920E030E0A90178
:102100006BE070E08DE695E00E94CB09FE01E1589E
:10211000FE4F80809180A280B3805401992488244E
:1021200088249924BB24FE01E158FE4F80819181CF
:10213000A281B381BA2FA92F982F8827AA27BB275E
:1021400088299929AA29BB29C554DE4F28814C0129
:102150005D01822AA50194016CE070E08DE695E0B6
:102160000E94CB0920E030E0A9016DE070E08DE62F
:1021700095E00E94CB09A50194016EE070E08DE628
:1021800095E00E94CB0920E030E0A9016FE070E00B
:102190008DE695E00E94CB09A7019601D1CEC091B2
:1021A0008D03D0918E03CC0FDD1FCC0FDD1FFE0100
:1021B000E158FE4F2081318142815381A9013327AB
:1021C0002227222733275527FE01E158FE4F808121
:1021D0009181A281B381BA2FA92F982F8827AA278E
:1021E000BB27822B932BA42BB52BFE01E554FE4F6E
:1021F00020815C016D01A22AA6019501D7CEC09174
:102200008D03D0918E03CC0FDD1FCC0FDD1FFE019F
:10221000E95AFE4F80809180A280B38054019924B6
:10222000882488249924BB24FE01E559FE4F80812F
:102230009181A281B381BA2FA92F982F8827AA272D
:10224000BB2788299929AA29BB29FE01E158FE4FFD
:1022500020814C015D01822AA50194016AE070E0B1
:102260008DE695E00E94CB0920E030E0A9016BE00B
:1022700070E08DE695E00E94CB09FE01ED56FE4F21
:10228000C080D180E280F3807601DD24CC24CC2490
:10229000DD24FF24FE01E955FE4F80819181A2815A
:1022A000B381BA2FA92F982F8827AA27BB278C295B
:1022B0009D29AE29BF29C554DE4F28816C017D01BF
:1022C000C22AA701960148CF1092A3021092A2023F
:1022D000D8CCCF93DF93CAE0D0E020E030E0A90172
:1022E000BE018DE695E00E94CB092196CD30D10547
:1022F000A1F7DF91CF910895CF93DF93D0E0C0E0B5
:1023000020E030E0A901BE018DE695E00E94CB09F6
:102310002196CE30D105A1F7DF91CF910895CF93CB
:10232000DF93C0918F03D0919003C130D10509F0A4
:102330005FC082E090E09093900380938F0390932E
:10234000880380938703109215051092140510924C
:1023500000051092FF0440918D0350918E03FA0105
:10236000EE0FFF1FEE0FFF1FE15FFD4F60817181D8
:10237000828193810E94370AD093E304C093E204E0
:102380008BE490E0A0E0B0E08093EE049093EF0443
:10239000A093F004B093F104C09117058091130548
:1023A0008C0F9927991F9093050580930405C0937E
:1023B00001051092E5041092E4046C2F70E0809106
:1023C000170590911305890F9927991F68177907A9
:1023D0004CF420E030E0A9018AEC94E00E94CB09A3
:1023E000CF5FEBCF8AEC94E0DF91CF910C94360C69
:1023F000239789F581E0809300011092770380E0B4
:1024000090E0AFEFB0E08093060590930705A093AE
:102410000805B093090580930A0590930B05A093D6
:102420000C05B0930D051092E1041092E004109297
:10243000E3041092E2040E947C1110929003109227
:102440008F038091890390918A03892B21F4109244
:102450008E0310928D03DF91CF910895CF93DF9378
:10246000D0E0C0E020E030E0A901BE018DE695E0BB
:102470000E94CB092196C430D105A1F760E089E024
:10248000DF91CF910C948C04CF92DF92EF92FF9268
:10249000CF93DF936B017C01E0918703F091880378
:1024A000E730F10568F4E95AFD4E0C94E62A5E1215
:1024B0008512B012381306137A13B6130E947C11DA
:1024C00080918F0390919003009709F47DC1039749
:1024D00009F47AC180918D0390918E038230910529
:1024E00009F480C108F470C18330910509F47FC1FB
:1024F000049709F481C18DE695E0DF91CF91FF90BB
:10250000EF90DF90CF900C94360C2FEF3FEF4FEF12
:1025100050E068E070E08DE695E00E94CB098DE622
:1025200095E00E94360C20E030E0A90165E070E003
:102530008DE695E00E94CB098DE695E00E94360C71
:1025400020E030E0A90164E070E08DE695E00E94B3
:10255000CB098DE695E00E94360C0E942E12B0CF7A
:102560002FEF3FEF4FEF50E068E070E08DE695E031
:102570000E94CB098DE695E00E94360C2FEF3FEFCD
:102580004FEF50E065E070E08DE695E00E94CB09EA
:102590008DE695E00E94360C20E030E04FEF50E0F1
:1025A00064E070E08DE695E00E94CB098DE695E051
:1025B0000E94360C20E030E0A90167E070E08DE673
:1025C00095E00E94CB098DE695E00E94360C20E054
:1025D00030E0A90169E070E08DE695E00E94CB094A
:1025E0008DE695E00E94360C0E942E120E94691121
:1025F00067CF2FEF3FEF4FEF50E067E070E08DE6E1
:1026000095E00E94CB0910925B035FC08091660346
:1026100090916703A0916803B0916903A7019B01A2
:10262000281B390B4A0B5B0BDA01C901843F91402F
:10263000A105B105C8F0C0926603D0926703E0928D
:102640006803F092690380916503811147C02FEF01
:102650003FEF4FEF50E068E070E08DE695E00E94BC
:10266000CB0981E0809365038DE695E00E94360CEE
:1026700080915C0390915D03A0915E03B0915F0334
:10268000A7019601281B390B4A0B5B0BDA01C90124
:10269000843F9140A105B105C0F0C0925C03D09287
:1026A0005D03E0925E03F0925F0380915B03811112
:1026B000A0CF20E030E0A90167E070E08DE695E072
:1026C0000E94CB0981E080935B038DE695E00E9438
:1026D000360CC701B6010E94F90DF2CE20E030E0C1
:1026E000A90168E070E08DE695E00E94CB091092A8
:1026F0006503BACF80916B0390916C03A0916D0339
:10270000B0916E03A7019B01281B390B4A0B5B0B91
:10271000DA01C90184369105A105B10508F4A4CFF9
:10272000C0926B03D0926C03E0926D03F0926E0343
:1027300080916A0381110EC02FEF3FEF4FEF50E001
:1027400068E070E08DE695E00E94CB0981E080931F
:102750006A038ACF20E030E0A90168E070E08DE6EE
:1027600095E00E94CB0910926A037ECFD0E0C0E0D2
:102770002FEF3FEF4FEF50E0BE018DE695E00E9456
:10278000CB092196C430D10599F761E089E00E9418
:102790008C0420E030E0A90169E070E08DE695E06E
:1027A0000E94CB098DE695E00E94360C20E030E0D7
:1027B000A90164E070E08DE695E00E94CB098DE60A
:1027C00095E00E94360C12CF20E030E0A90166E0CF
:1027D00070E08DE695E00E94CB098DE695E00E94C1
:1027E000360C89CE20E03FEF40E050E0F0CF20E013
:1027F0003EE741E850E0EBCF8091570390915803BA
:10280000A0915903B0915A03A7019601281B390BD7
:102810004A0B5B0BDA01C901843F9140A105B10568
:10282000E0F2C0925703D0925803E0925903F0921D
:102830005A038091560381110EC020E03FEF40E023
:1028400050E066E070E08DE695E00E94CB0981E003
:1028500080935603C2CF20E030E04FEF50E066E0B7
:1028600070E08DE695E00E94CB0910925603B5CF3B
:10287000FC0101900020E9F73197AF01481B590B8B
:10288000BC0180E194E00C9450050F931F93CF930B
:10289000DF93CDB7DEB7A1970FB6F894DEBF0FBEBA
:1028A000CDBF482F50E070E060E019A2CE018196C4
:1028B0008A019B010F7011272227332724E0769588
:1028C0006795579547952A95D1F70A30C4F4005D6E
:1028D000FC010293CF01411551056105710541F7D6
:1028E000EF2B79F00E943814A1960FB6F894DEBF52
:1028F0000FBECDBFDF91CF911F910F910895095C5D
:10290000E7CF90E080E0F0CFAF92BF92CF92DF921E
:10291000EF92FF920F931F93CF93DF9380918305E4
:1029200090918405DC01ED91FC910190F081E02D06
:102930006091850509958091830590918405DC015E
:10294000ED91FC910190F081E02D60918605099553
:102950008091830590918405DC01ED91FC910190BB
:10296000F081E02D60918705099580918305909114
:102970008405DC01ED91FC910190F081E02D6091E6
:10298000880509958091830590918405DC01ED917E
:10299000FC910190F081E02D60918905099580916D
:1029A000830590918405DC01ED91FC910190F0810B
:1029B000E02D60918A0509958091830590918405A9
:1029C000DC01ED91FC910190F081E02D60918B058F
:1029D00009958091830590918405DC01ED91FC912E
:1029E0000190F081E02D60918C050995809183051F
:1029F00090918405DC01ED91FC910190F081E02D36
:102A000060918D0509958091830590918405DC0185
:102A1000ED91FC910190F081E02D60918E0509957A
:102A200080919905882309F462C081E992E00E94AF
:102A30003814A0908505B0908605C0908705D09089
:102A40008805E0908905F0908A0500918B0510912A
:102A50008C05D0918D05C0918E0587E992E00E948A
:102A600038148EE992E00E9438148A2D0E94451491
:102A70000E943D068B2D0E9445140E943D068C2D20
:102A80000E9445140E943D068D2D0E9445140E940F
:102A90003D068E2D0E9445140E943D068F2D0E94FA
:102AA00045140E943D06802F0E9445140E943D0659
:102AB000812F0E9445140E943D068D2F0E944514CF
:102AC0000E943D068C2F0E9445148EE992E00E94E0
:102AD00038148EE992E0DF91CF911F910F91FF9012
:102AE000EF90DF90CF90BF90AF900C943814DF91AF
:102AF000CF911F910F91FF90EF90DF90CF90BF90FB
:102B0000AF900895E3E8F5E023E0258316829783EC
:102B100080870E94FE030C948414E3E8F5E028E02B
:102B200025831682978380870E94FE030C94841469
:102B300020918D0330918E032230310509F447C076
:102B400038F42115310569F02130310579F1089506
:102B50002330310509F44CC02430310509F459C043
:102B600008958330910521F48BE090E00C948D154D
:102B70008530910571F480919403882339F0809118
:102B80009303811103C084E190E0F0CF80E190E0F5
:102B9000EDCF8230910521F484E090E00C94821511
:102BA000079709F045C08CE090E0F8CF833091059D
:102BB00019F482E290E0DACF85309105E1F28230BB
:102BC000910551F30797A1F582E290E0E7CF8330BA
:102BD000910519F48EE090E0C9CF8530910519F484
:102BE00082E190E0C3CF029719F587E190E0D6CF5C
:102BF0008330910519F48FE090E0B8CF85309105CE
:102C000019F483E190E0B2CF029791F488E190E06B
:102C1000C5CF8330910519F485E190E0A7CF8530C9
:102C2000910509F4B3CF029719F489E190E0B6CF8A
:102C3000089585ED8093BC008091CF039091D003DF
:102C4000A091D103B091D2030796A11DB11D23E03D
:102C5000B695A795979587952A95D1F72091BC00B1
:102C600024FD03C01092CD0308954091CF035091ED
:102C7000D0036091D1037091D203452B462B472B93
:102C800069F30097A105B10541F02AE22A95F1F711
:102C900000C00197A109B109E1CF8091CE030C9446
:102CA000A7061F920F920FB60F9211242F933F93F6
:102CB0008F939F93AF93BF938091990390919A03C1
:102CC000A0919B03B0919C033091980323E0230FC4
:102CD0002D3758F50196A11DB11D209398038093BF
:102CE000990390939A03A0939B03B0939C038091C4
:102CF0009D0390919E03A0919F03B091A003019624
:102D0000A11DB11D80939D0390939E03A0939F03EB
:102D1000B093A003BF91AF919F918F913F912F915D
:102D20000F900FBE0F901F90189526E8230F029664
:102D3000A11DB11DD2CF1F920F920FB60F92112479
:102D40002F933F934F935F936F937F938F939F93B3
:102D5000AF93BF93EF93FF9380E194E00E94CE0581
:102D6000FF91EF91BF91AF919F918F917F916F9163
:102D70005F914F913F912F910F900FBE0F901F9039
:102D800018951F920F920FB60F9211242F938F93C5
:102D90009F93EF93FF93E0912004F09121048081B1
:102DA000E0912604F091270482FD1BC09081809160
:102DB00029048F5F8F7320912A04821741F0E091DC
:102DC0002904F0E0E05FFB4F958F80932904FF9189
:102DD000EF919F918F912F910F900FBE0F901F90A9
:102DE00018958081F4CF1F920F920FB60F92112485
:102DF0002F933F934F935F936F937F938F939F9303
:102E0000AF93BF93EF93FF938091B900887F803693
:102E100009F44AC0F0F5883209F4A7C018F58031EA
:102E200009F49BC0B8F4882309F4F9C0883009F488
:102E300094C0FF91EF91BF91AF919F918F917F913E
:102E40006F915F914F913F912F910F900FBE0F9017
:102E50001F901895883109F488C0803251F780930B
:102E6000CB0314C0803409F49DC040F48033B9F31F
:102E70008833F9F68093CB0385ECB0C0803509F434
:102E800085C0883509F496C0883499F60E941916D1
:102E9000D0CF883909F48CC038F5883729F050F440
:102EA000883611F0803729F683E08093CD031092A5
:102EB0004B0357C0883809F47BC0803919F080383B
:102EC00009F0B7CF80914B03803208F071C0E091D8
:102ED0004B0381E08E0F80934B038091BB00F0E0A9
:102EE000E55DFC4F80833DC0803B39F0E0F4803AE3
:102EF00009F479C0883A09F09CCF84E08093CD032F
:102F000010922A0310922903E0915203F091530387
:102F100009958091290381110FC081E080932903D5
:102F20001092090309C0803C09F4A6CF883C09F43B
:102F3000A3CF883B09F07DCFE0912A0381E08E0F7B
:102F400080932A03F0E0E75FFC4F80818093BB0011
:102F500090912A038091290329C08091A80380932E
:102F6000BB0085EC8093BC0064CF9091CA03809134
:102F7000C903981758F5E091CA0381E08E0F80933A
:102F8000CA03F0E0E755FC4F8081E9CFE091CA0326
:102F900081E08E0F8093CA038091BB00F0E0E7557B
:102FA000FC4F80839091CA038091C9039817C8F29F
:102FB00085E8D8CFE091CA0381E08E0F8093CA03E1
:102FC0008091BB00F0E0E755FC4F80838091CC03FB
:102FD00081115CCF81E08093A70384EA8093BC00D9
:102FE0001092CD0326CF85EC8093BC001092CD03C8
:102FF00080914B03803230F4E0914B03F0E0E55DCB
:10300000FC4F108260914B0370E0E0915003F0910F
:1030100051038BE293E0099510924B030ACF109273
:10302000CB0334CF1F920F920FB60F9211242F9320
:103030003F934F935F936F937F938F939F93AF9340
:10304000BF93EF93FF93E0914E03F0914F033097BE
:1030500049F0A685B7858585968D91FF14C09C9112
:103060008923A1F4FF91EF91BF91AF919F918F912F
:103070007F916F915F914F913F912F910F900FBE74
:103080000F901F9018959C91892361F7A389B489AB
:103090009C918589809589238C938689978901974E
:1030A000F1F7608D718DA685B785558538E020E0F4
:1030B000CB010197F1F7822F90E095958795282F06
:1030C0004C91452309F02068315091F7868D81FDA0
:1030D000209580914D0390E001968F739927309150
:1030E0004C03381799F0A0914D03B0E0A855BD4F9F
:1030F0002C9380934D03828D938D0197F1F7A389D3
:10310000B4898C919589892B8C93ACCF868D816005
:10311000868FF1CFCF92DF92EF92FF920F931F93A2
:10312000CF93DF93EC017B01142F052F19821886B2
:103130001F86188A198A1A8AB90146E0769567951A
:103140004A95E1F76E87C90154E0969587955A959F
:10315000E1F783708B87A90156954795569547955A
:1031600043704C8723702D8791E09883861343C06A
:1031700083E090E0E89E6001E99ED00CF89ED00CC0
:103180001124DD82CC82C6010E94222B9A87898776
:103190000097A1F1A60170E060E00E94472CFB823D
:1031A000EA821E830F838981882341F061E0812FA9
:1031B0000E94BA0460E0812F0E948C04812F902F1E
:1031C000FC01EE51FC4FE491F0E0EE0FFF1FE852DE
:1031D000FC4F259134913C8B2B8BFC01EA50FC4F2A
:1031E000E491ED8BDF91CF911F910F91FF90EF90C4
:1031F000DF90CF90089584E090E0BCCF1D821C82C8
:103200001B821A82CECF109213041092120448EE41
:1032100053E060E070E04093140450931504609311
:1032200016047093170487E292E090931104809340
:10323000100485EC90E090931D0480931C0484ECB2
:1032400090E090931F0480931E0480EC90E0909394
:1032500021048093200481EC90E0909323048093D8
:10326000220482EC90E0909325048093240486EC61
:1032700090E09093270480932604109229041092E2
:103280002A0410922B0410922C041092B004109275
:10329000AF044093B1045093B2046093B3047093AD
:1032A000B40489E392E09093AE048093AD048FEF71
:1032B0008093B9041092BB041092BA041092C50412
:1032C0001092C4048FEF9FEFDC018093C0049093B1
:1032D000C104A093C204B093C30482E390E0A0E0D1
:1032E000B0E08093D0059093D105A093D205B09320
:1032F000D30584EC99E0A0E0B0E08093D4059093EE
:10330000D505A093D605B093D70591E09093D80545
:1033100029E532E03093E2052093E1051092B005F3
:103320001092AF054093B1055093B2056093B30579
:103330007093B4052BE432E03093AE052093AD05D5
:103340001092C4051092C3051092C6051092C505CF
:103350001092C8051092C7051092CA051092C905AF
:103360008091CB058E7F8D7F8093CB058695817074
:10337000682F69278BE00E948C0461E08BE00E943B
:10338000BA04E1E0F4E0E491E093BD05EDEEF3E092
:10339000E491F0E0EE0FFF1FE852FC4F859194910D
:1033A0009093BF058093BE0560E08AE00E94BA0456
:1033B0008091CB0581FD04C061E08AE00E948C040D
:1033C0008AE08093B905E0E0F4E0E491E093BA0587
:1033D000ECEEF3E0E491F0E0EE0FFF1FE253FC4F60
:1033E000859194919093BC058093BB0510929A05AA
:1033F00010929B0510929C0510929D0510929E05BF
:1034000010929F051092A0051092A1051092A2059E
:103410001092A3051092A4051092A5051092A6057E
:103420001092AC051092AB0522E530E043E050E08D
:103430006DE070E08DE695E00E948A1822E530E0AC
:1034400042E050E067E370E08AEC94E00E948A1862
:103450001092FB041092FC041092FD0410920F05D0
:1034600010920E0588E28093120590E19093130567
:10347000809316058093170580E5E7E0F1E0A8E169
:10348000B5E001900D928A95E1F7109268058FE8FA
:1034900091E190936C0580936B058091D00590919C
:1034A000D105A091D205B091D3058093C604909325
:1034B000C704A093C804B093C9040895789484B550
:1034C000826084BD84B5816084BD85B5826085BD20
:1034D00085B5816085BD80916E00816080936E00AE
:1034E00010928100809181008260809381008091A0
:1034F0008100816080938100809180008160809351
:1035000080008091B10084608093B1008091B00010
:1035100081608093B00080917A00846080937A000B
:1035200080917A00826080937A0080917A00816035
:1035300080937A0080917A00806880937A0010925C
:10354000C100E0912004F091210482E08083E091A9
:103550001C04F0911D041082E0911E04F0911F04E0
:103560008FEC808310922804E0912404F0912504CC
:1035700086E08083E0912204F091230480818061C1
:103580008083E0912204F09123048081886080830D
:10359000E0912204F0912304808180688083E0918F
:1035A0002204F091230480818F7D80831092C805CE
:1035B0001092C7051092C6051092C5051092C40559
:1035C0001092C3058DE991E09093CA058093C905D7
:1035D0009091B905963108F047C02DEB30E030935B
:1035E000C4052093C3052BE931E03093C605209331
:1035F000C5052CE231E03093C8052093C705209122
:10360000680084E0983048F031E09E3008F430E003
:1036100081E001C0880F3A95EAF7822B8093680019
:103620002DE630E0983050F02BE630E09E3030F060
:103630002CE630E0963110F030E020E03093C10508
:103640002093C005292F30E0983008F051C381E065
:1036500001C0880F9A95EAF78093C2058091C90549
:103660009091CA050197F1F78091C7059091C8051F
:10367000892B49F1E0914E03F0914F0325E0ED3A9B
:10368000F20709F1309739F0A389B4899C918589B3
:10369000809589238C938091CB058E7F8093CB0579
:1036A00010924D0310924C038DEA95E090934F03D6
:1036B00080934E03E091C005F091C1058081909107
:1036C000C205892B808384E690E0A0E0B0E080937F
:1036D000A7059093A805A093A905B093AA051092F9
:1036E0009A058093A3059093A405A093A505B09394
:1036F000A6050E94420560939F057093A0058093E4
:10370000A1059093A2058DEA95E09093840580939E
:103710008305109299053EE7309385052FEF20939E
:10372000860596E0909387058FEE80938E05309303
:103730008F052093900590939105809398058BE0D9
:10374000809388051092890510928A0510928B0546
:103750000E94FE030E9484148AE1809388051092DF
:10376000890510928A0510928B050E94FE030E9423
:1037700084148FEC91E09093E2058093E105109220
:10378000A4031092A5031092A60380E78093A303DD
:1037900062E070E088E090E00E94062B9093A20324
:1037A0008093A10310925503109254031092D403F6
:1037B0001092F6030E9489068EE495E090935303DD
:1037C000809352038FE495E09093510380935003CC
:1037D0008091A30391E09093D3038093F50381E25A
:1037E00090E00E9435080E94C806E091A103F09184
:1037F000A203CF014096119211928E179F07D9F71D
:103800000E943F088091A303C1E0C093D30380933B
:10381000F5031092D4031092F60381E890E00E9421
:1038200035080E94C8068091A303C093D3038093F8
:10383000F5031092D4031092F6038FEE90E00E94ED
:1038400035080E94C8060E943F0868EE73E080E0D9
:1038500090E00E9410058091A303C093D30380934E
:10386000F5031092D4031092F6038AEE90E00E94C2
:1038700035080E94C80686E0809388051092890565
:1038800010928A058EE180938B050E94FE030E94B0
:10389000841460E086E00E94BA0461E086E00E9441
:1038A0008C0460E087E00E94BA0461E087E00E9437
:1038B0008C0460E088E00E94BA0461E088E00E9425
:1038C0008C0460E084E00E94BA0461E084E00E941D
:1038D0008C0460E085E00E94BA0461E085E00E940B
:1038E0008C0461E089E00E94BA0460E089E00E94F3
:1038F0008C0461E08DE00E94BA0460E08DE00E94DB
:103900008C0460E08CE00E94BA048DE695E00E9491
:103910000B0D60EF8DE695E00E9482098DE695E043
:103920000E94360C8AEC94E00E940B0D80E090E03F
:10393000AFEFB0E08093060590930705A0930805CC
:10394000B09309058FEF90E0A0E0B0E080930A0506
:1039500090930B05A0930C05B0930D051092900366
:1039600010928F0310928E0310928D030E947C118F
:1039700064EF71E080E090E00E94100534E6232EB1
:10398000312C412C512C772473940E9442054B0119
:103990005C0186E00E9463046C0181E0C114D104E3
:1039A00009F480E08093970387E00E9463047C0120
:1039B00081E0E114F10409F480E08093960388E04B
:1039C0000E9463048C0181E00115110509F480E077
:1039D0008093950384E00E94630421E0892B09F41D
:1039E00020E02093940385E00E946304EC0181E0D1
:1039F000209709F480E0809393038CE00E94630495
:103A000021E0892B09F420E020939203CD2809F4CA
:103A10007CC182E090E0EF2811F481E090E0909387
:103A20008A0380938903012B09F459C2CD2B09F035
:103A300043C28091910381111BC020918F0330916B
:103A400090032230310581F480918D0390918E0393
:103A50008230910509F4C3C108F05CC1009709F4F4
:103A600094C1019709F4A6C17092910310928C033E
:103A700080919403811130C280918B03811115C014
:103A800070928B0380918C03811119C28FE0809317
:103A900088051092890570928A0570928B050E94A4
:103AA000FE030E94841470928C030091890310918C
:103AB0008A030230110509F027C68091000188238E
:103AC00009F492C080919603882309F48DC081E0A7
:103AD00090E00E9482150E94F1088BE190E09093A3
:103AE000CF058093CE051092D9051092DA05109279
:103AF000DB051092DC0584E190E0A0E0B0E080936B
:103B0000D0059093D105A093D205B093D305109220
:103B1000CD051092CC05C1E0D0E0D0939003C093C6
:103B20008F030E942E1220918D0384E090E09093E9
:103B3000E1048093E0042093FA0422E330E040E0C3
:103B400050E02093E6043093E7044093E804509358
:103B5000E904909303058093020580E090E0AFEFC5
:103B6000B0E08093060590930705A0930805B093F5
:103B70000905109200051092FF0410920F05109293
:103B80000E051093E3040093E2048EE190E0A0E0C0
:103B9000B0E08093EE049093EF04A093F004B09310
:103BA000F104109211051092100580911705909163
:103BB0001305A82FA90FBB27BB1FB0930505A09322
:103BC00004054FEF50E060E070E040930A05509329
:103BD0000B0560930C0570930D05890F809301050B
:103BE000D093E504C093E40480918F0390919003F7
:103BF0008130910509F476C1029709F4C5C10E948C
:103C000042050091F2041091F3042091F4043091E4
:103C1000F504601B710B820B930B0091E60410916D
:103C2000E7042091E8043091E904061717072807F4
:103C30003907B0F40E9442056093F2047093F304D4
:103C40008093F4049093F5048091E0049091E10452
:103C50008330910509F487C7049711F40C94B226B8
:103C60000E9442050091F6041091F7042091F80497
:103C70003091F904601B710B820B930B0091EE04E1
:103C80001091EF042091F0043091F104061717070A
:103C900028073907E0F40E9442056093F604709308
:103CA000F7048093F8049093F9048091E2049091D2
:103CB000E3048230910511F40C94402710F00C9429
:103CC000DA26C0911705019711F40C94F9268DE6B8
:103CD00095E00E94360C80E090E0892B09F455CEE7
:103CE0000E94BA05882309F44ECE0E94000046CEF9
:103CF0009E3040F42850310981E001C0880F2A9598
:103D0000EAF7AACC2E503109F7CF10928A0310920D
:103D1000890389CE8330910509F498C0049709F08E
:103D2000A3CE10928E0310928D031092FA0483E0BA
:103D300090E09093E1048093E0048091120590E07C
:103D400090930305809302058FE590E0A0E0B0E03A
:103D50008093E6049093E704A093E804B093E90409
:103D600010920F0510920E05109268051092FB0438
:103D700020E030E04FEF50E0209306053093070538
:103D8000409308055093090512C081E090E090939C
:103D90008E0380938D036AE08AEC94E00E9482098E
:103DA00041E065E070E080E090E00E94370A83E047
:103DB00090E012C030938E0320938D0360EF8AEC65
:103DC00094E00E94820942E06FE570E080E090E0BC
:103DD0000E94370A80E290E00E94821545CE83E07F
:103DE00090E090938E0380938D0323E02093FA0458
:103DF0009093E1048093E0048091120590E0909309
:103E00000305809302058FE590E0A0E0B0E0809389
:103E1000E6049093E704A093E804B093E9041092B9
:103E20000F0510920E05109268051092FB0420E019
:103E30003EE741E850E020930605309307054093A4
:103E40000805509309058FE190E0C6CF24E030E0EB
:103E500030938E0320938D032093FA049093E10412
:103E60008093E0048091120590E090930305809385
:103E7000020582E390E0A0E0B0E08093E604909336
:103E8000E704A093E804B093E90410920F051092A0
:103E90000E05109268051092FB0420E03FEF40E011
:103EA00050E0209306053093070540930805509392
:103EB00009058AE190E090CF10929103D9CD7092DC
:103EC00088051092890510928A0510928B050E9430
:103ED000FE030E948414E9CD10928B03E6CD10926C
:103EE0008C03E3CD10920001C501B4010E940809C2
:103EF0008091610390916203A0916303B091640388
:103F0000A5019401281B390B4A0B5B0BDA01C9018F
:103F1000843F9140A105B105C0F080926103909269
:103F20006203A0926303B0926403809160038111E5
:103F30001FC020E030E04FEF50E064E070E08DE61D
:103F400095E00E94CB09709260038DE695E00E9497
:103F5000360C2FEF3FEF4FEF50E068E070E08DE65A
:103F600095E00E94CB098DE695E00E94360C47CE85
:103F700020E030E0A90164E070E08DE695E00E9469
:103F8000CB0910926003E1CFC501B4010E94441235
:103F9000C0918703D0918803C230D10521F4C501B7
:103FA000B4010E940809809192038823B1F08091A6
:103FB0009503811112C0229781F480918D03909115
:103FC0008E038230910509F4B9C108F0A9C10097A8
:103FD00009F4ACC1019709F4AEC184E00E94630406
:103FE000EC0181E0209709F480E08093940385E060
:103FF0000E94630421E0009709F420E020939303DA
:1040000040918603209719F0009709F0EEC12091A6
:1040100095032111EAC12091870330918803245030
:1040200031092230310530F023E030E0309388034D
:1040300020938703411144C0209187033091880366
:10404000892B09F084C1CD2B09F481C124303105BD
:1040500059F180918D0390918E03892B09F474C1DD
:1040600083E090E00E9498150E94F1081092CF051D
:104070001092CE051092D9051092DA051092DB0548
:104080001092DC0582E390E0A0E0B0E08093D005E0
:104090009093D105A093D205B093D3051092CD058E
:1040A0001092CC050E94F1088092820390928303C3
:1040B000A0928403B0928503709286037092FD04EF
:1040C0008091940390919303911151C7882309F42F
:1040D0006CC02FEF3FEF4FEF50E069E070E08DE6EE
:1040E00095E00E94CB098DE695E00E94360C809108
:1040F000D9059091DA05A091DB05B091DC05B501F9
:10410000A401481B590B6A0B7B0B8091D005909141
:10411000D105A091D205B091D30584179507A607C4
:10412000B70708F03EC08092D9059092DA05A092B8
:10413000DB05B092DC05D0E0C0E01CE18091CE054B
:104140009091CF05189FF001199FF00D1124EC0FED
:10415000FD1FE859FF4FE491A091E105B091E20500
:10416000CE01880F991FA80FB91F41E0E11101C0CE
:1041700040E011966C9111978C910E941904219640
:10418000CC31D105D9F68091CE059091CF058F30F5
:1041900091050CF44FC71092CF051092CE050E94E6
:1041A0003F0861E08DE00E948C0480917303909140
:1041B0007403A0917503B0917603A5019401281BA7
:1041C000390B4A0B5B0BDA01C90184369105A10555
:1041D000B10598F1C0907D03D0907E03E0907F03FD
:1041E000F09080033FEFC31AD30AE30AF30AC092A8
:1041F0007D03D0927E03E0927F03F0928003809251
:10420000730390927403A0927503B092760340E614
:10421000C416D104E104F10408F4C7C081E00E948F
:10422000B60981E090E0A0E0B0E08093EE049093C6
:10423000EF04A093F004B093F10480916F03909188
:104240007003A0917103B0917203A5019401281B22
:10425000390B4A0B5B0BCA01B9010E9468296B013B
:104260007C016091C6047091C7048091C80490914C
:10427000C9040E94682920E030E048E950E40E9427
:10428000FB299B01AC01C701B6010E94F62987FDFD
:1042900020C080926F0390927003A0927103B0923D
:1042A00072038091D0059091D105A091D205B09173
:1042B000D3050097A105B10561F0815090E0B0E011
:1042C000A0E08093D0059093D105A093D205B09340
:1042D000D3050E944205C0908203D0908303E090F2
:1042E0008403F09085036C197D098E099F09603164
:1042F00077428105910508F465C08091870390910C
:104300008803049721F485E090E00E94981585E0E9
:1043100090E09093880380938703709281036FCC21
:104320008330910571F0049709F057CE82E090E058
:104330000E948D1552CE83E290E0FACF8CE190E09E
:10434000F7CF8EE190E0F4CF87E090E08BCE243081
:10435000310509F4A9CE83E090E00E9498150E94EF
:10436000F1081092CF051092CE051092D905109247
:10437000DA051092DB051092DC0522E330E040E024
:1043800050E02093D0053093D1054093D20550934F
:10439000D30584CE181619060CF445C61092CD0527
:1043A0001092CC0540C6019746C68FE58C190E9435
:1043B000B6098FE590E0A0E0B0E08C199D09AE0948
:1043C000BF0933CF0E9442056C197D098E099F09F0
:1043D000683873418105910508F411CC84E090E0C0
:1043E00090938803809387030ACC442329F180911A
:1043F0008103811104C082E090E00E949815E09151
:104400008D03F0918E03EE0FFF1FEE0FFF1FE15F94
:10441000FD4F80810E94B6098BE490E0A0E0B0E0FF
:104420008093EE049093EF04A093F004B093F10412
:1044300060E08DE00E948C041092860310927D0350
:1044400010927E0310927F0310928003809181036B
:10445000882369F01092810370927C038092780324
:1044600090927903A0927A03B0927B03C8CB80919B
:1044700087039091880320917C03222309F41EC1B5
:104480000597D1F589E090E00E9482150E94F1081D
:104490008BE190E09093CF058093CE051092D905E3
:1044A0001092DA051092DB051092DC052BE430E067
:1044B00040E050E02093D0053093D1054093D205E1
:1044C0005093D3051092DD051092DE051092DF05A2
:1044D0001092E00580ED97E0A0E0B0E08093D40575
:1044E0009093D505A093D605B093D7057092D805C3
:1044F0001092CD051092CC0586E090E09093880351
:10450000809387039093E1048093E0049093E30405
:104510008093E2048091D805882309F46AC08092D0
:10452000DD059092DE05A092DF05B092E0051092C5
:10453000D805D0E0C0E0E091E105F091E205EC0F94
:10454000FD1F41E0618180810E9419042296C833D9
:10455000D10589F70E943F088091780390917903F3
:10456000A0917A03B0917B03881A990AAA0ABB0A20
:1045700098E8891693E19906A104B10408F43FCBA9
:1045800010927C037092000182E090E09093880387
:10459000809387030E94F1088BE190E09093CF0510
:1045A0008093CE051092D9051092DA051092DB05A2
:1045B0001092DC0524E130E040E050E02093D0058B
:1045C0003093D1054093D2055093D3051092CD0579
:1045D0001092CC0580918D0390918E03019709F084
:1045E0000ECB1092FD046AE08AEC94E00E948209EE
:1045F00006CB8091DD059091DE05A091DF05B0919D
:10460000E005B501A401481B590B6A0B7B0B809197
:10461000D4059091D505A091D605B091D705841702
:104620009507A607B70708F097CF8091D905909115
:10463000DA05A091DB05B091DC05B501A401481BAA
:10464000590B6A0B7B0B8091D0059091D105A091FD
:10465000D205B091D30584179507A607B70708F0D0
:104660007BCF8092D9059092DA05A092DB05B092BB
:10467000DC058091CE059091CF058C31910568F4D1
:10468000880F991FE091E105F091E205E80FF91F0D
:1046900040E0618180810E9419048091CE05909153
:1046A000CF05019797FD05C09093CF058093CE0568
:1046B00051CF1092CF051092CE054CCF029709F43E
:1046C0009ECA82E090E090938803809387030E94C3
:1046D000F1088BE190E09093CF058093CE05109286
:1046E000D9051092DA051092DB051092DC0584E101
:1046F00090E0A0E0B0E08093D0059093D105A09326
:10470000D205B093D30562CFC0918F03D0919003AF
:104710000130110509F01CC1CD2B09F4C9C08091ED
:10472000770381115FC00E94F1080E94F108109286
:10473000CF051092CE051092D9051092DA0510928D
:10474000DB051092DC052CE330E040E050E02093E4
:10475000D0053093D1054093D2055093D3051092E4
:10476000CD051092CC058AE090E00E94821510924F
:104770008C0383E090E09093900380938F0370927A
:10478000770325E030E03093E1042093E0042092A9
:10479000E6043092E7044092E8045092E9048091E4
:1047A000120590E090930305809302051092000596
:1047B0001092FF043093E3042093E2042092EE046D
:1047C0003092EF044092F0045092F10483E290E0C2
:1047D0009093050580930405109201051093E5045C
:1047E0000093E40481E090E0909388038093870332
:1047F000C501B4010E9444128091D9059091DA0557
:10480000A091DB05B091DC05B501A401481B590B53
:104810006A0B7B0B8091D0059091D105A091D205B8
:10482000B091D30584179507A607B70708F0E7C925
:104830008092D9059092DA05A092DB05B092DC0552
:104840008091CE059091CF052091CC053091CD057A
:10485000232B09F059C08C3191056CF4880F991FF6
:10486000E091E105F091E205E80FF91F41E0618177
:1048700080810E9419048091CE059091CF058B31E3
:1048800091050CF45AC021E030E03093CD0520931F
:10489000CC052091CC053091CD05232B09F056C0D5
:1048A00001969093CF058093CE050E943F08A7C93B
:1048B0008091870390918803019709F493CF88E052
:1048C00090E00E9482150E94F1081092CF0510928C
:1048D000CE051092D9051092DA051092DB051092E0
:1048E000DC058CE390E0A0E0B0E08093D0059093ED
:1048F000D105A093D205B093D3051092CD051092A7
:10490000CC0510928C036ECF8B3191055CF401962F
:10491000880F991FE091E105F091E205E80FF91F7A
:1049200040E0A5CF4B9709F0A6CFE091E105F091CB
:10493000E20541E067A986A99CCF181619060CF478
:10494000A8CF1092CD051092CC05A3CF0197A9CF87
:10495000C130D10509F4ABC060F0C230D10509F413
:1049600048C0239709F04BC9C501B4010E949B08B8
:1049700046C91092880310928703C501B4010E94B2
:104980009B08C501B4010E94441225E030E0309339
:10499000E1042093E0042092E6043092E704409280
:1049A000E8045092E9048091120590E09093030589
:1049B00080930205109200051092FF043093E304E7
:1049C0002093E2042092EE043092EF044092F0042F
:1049D0005092F10483E290E09093050580930405E2
:1049E0001092010581E090E09093E5048093E40447
:1049F00006C9809177038111B7CF20E530E040E010
:104A000050E02093D0053093D1054093D2055093C8
:104A1000D3058AE090E00E94821510928C0383E017
:104A200090E09093900380938F03109288031092EC
:104A3000870310928A0310928903C501B4010E9472
:104A400044127092770325E030E03093E104209324
:104A5000E0042092E6043092E7044092E804509289
:104A6000E9048091120590E090930305809302057C
:104A7000109200051092FF043093E3042093E204A7
:104A80002092EE043092EF044092F0045092F10430
:104A900083E290E090930505809304051092010550
:104AA00081E090E09093E5048093E4045DCF8091F1
:104AB0007703811159CF80E590E0A0E0B0E08093CA
:104AC000D0059093D105A093D205B093D3058AE089
:104AD00090E00E94821510928C0383E090E0909306
:104AE000900380938F031092880310928703109293
:104AF0008A0310928903C501B4010E944412709286
:104B0000770325E030E03093E1042093E004209225
:104B1000E6043092E7044092E8045092E904809160
:104B2000120590E090930305809302051092000512
:104B30001092FF043093E3042093E2042092EE04E9
:104B40003092EF044092F0045092F10483E290E03E
:104B5000909305058093040510920105D093E50418
:104B6000C093E40401CF8091FA0410E0813009F091
:104B7000B7C0C0E080911605C81758F46C2F70E0DC
:104B800020E030E0A9018AEC94E00E94CB09CF5FDD
:104B9000F1CF8091FD04811162C00E94420523E0A3
:104BA00030E040E050E00E94C42ACA01B9010091FF
:104BB0001605202F30E050E040E00E94C42A6093A8
:104BC000FE04C0911605C695C6950E9442059B013C
:104BD000AC0160E078E680E190E00E948C2A892FA9
:104BE00096FD8095E82FEF738F7096FD8F5FE695A9
:104BF000E695E695E670F0E0E95FFD4F1181189FBC
:104C0000102D812D112412951F708295807F182BF5
:104C10008081180F97FD11952DEF2C0F1058129FC2
:104C2000010E10E0111D11241D5FD0E0C0E0C1177E
:104C300008F092C08091FE048C0F9D2F911D609111
:104C4000160570E00E94B02A20E030E04FEF50E0FF
:104C5000BC018AEC94E00E94CB092196E8CF0E9427
:104C60004205969587957795679520911605A2CF71
:104C700020910605309107054091080550910905DE
:104C8000BE018AEC94E00E94CB0929C00197E9F4A7
:104C9000809117051817C8F48091FA048230A9F49E
:104CA0006091140570911505C617D70771F0209112
:104CB000060530910705409108055091090561509E
:104CC00071098AEC94E00E94CB09809117051817AE
:104CD00030F48091FA04843011F0823099F51F5F2E
:104CE000809112051817B0F5C12FD0E02091FF0474
:104CF00030910005CE018796880F991FFC01E6537D
:104D0000FB4F80819181C217D30709F0BFCF019774
:104D100031F7C0911405D09115058091FA048230C5
:104D200009F0A6CFCE010E9401030E94CC0D9B0189
:104D3000AC01BE018AEC94E00E94CB09C09114053D
:104D4000D0911505CE010E9401030E94CC0D9B015C
:104D5000AC0196CF0E9431028AEC94E00E94360C9E
:104D60000C94301E8091FA048230B1F060F08330F0
:104D7000D1F0843089F08AEC94E00E94360C0E94D5
:104D800031020C94301E409117054150550B60E0E4
:104D90008FEF0E94A70AEFCF409117054150550BA6
:104DA0006FEF80E0F6CF409117054150550B6EE74D
:104DB00081E8EFCF8530910509F49EC0C0E00697E9
:104DC00011F00C94671E80911205C81708F0ADC051
:104DD000209106053091070540910805509109057D
:104DE0006C2F70E08AEC94E00E94CB09CF5FEBCF90
:104DF000CF5F6C2F70E08091170590911305890F9C
:104E00009927991F681779079CF580910105C813A8
:104E10000CC020910A0530910B0540910C05509172
:104E20000D058AEC94E00E94CB09D09117052091E2
:104E30000105809113058D0F9927991F0197281758
:104E40001906B1F66D2F70E080911705909113054A
:104E5000890F9927991F0197681779074CF620E069
:104E600030E0A9018AEC94E00E94CB09DF5FEACF31
:104E70008AEC94E00E94360C0E948D020C94671E0E
:104E8000D0911705C09117056D2F70E08091130523
:104E90008C0F9927991F6817790754F7809101059E
:104EA000D8130EC020910A0530910B0540910C05D6
:104EB00050910D058AEC94E00E94CB09DF5FE2CFB0
:104EC00080911005C80F6C2F70E0809117059091AC
:104ED0001305890F9927991F681779077CF7809127
:104EE0000105C81739F020E030E0A9018AEC94E010
:104EF0000E94CB09CF5FE7CF10E0C12FD0E08091B7
:104F0000CC049091CD04C817D90708F0B1CFCE01D9
:104F10000E9401030E94CC0D9B01AC01BE018AECF2
:104F200094E00E94CB091F5FE8CFC09117056C2F5A
:104F300070E08091170590911305890F9927991FAB
:104F40006817790774F420910A0530910B05409198
:104F50000C0550910D058AEC94E00E94CB09CF5FBF
:104F6000E6CF8AEC94E00E94360C0C94671E811107
:104F70001CC98091D9059091DA05A091DB05B0910B
:104F8000DC05B501A401481B590B6A0B7B0B809112
:104F9000D0059091D105A091D205B091D305841789
:104FA0009507A607B70708F0FCC88092D90590922C
:104FB000DA05A092DB05B092DC05D0E0C0E01CE190
:104FC0008091CE059091CF05189FF001199FF00DAB
:104FD0001124EC0FFD1FE85DFD4FE491A091E10568
:104FE000B091E205CE01880F991FA80FB91F41E0CB
:104FF000E11101C040E011966C9111978C910E94D3
:1050000019042196CC31D105D9F68091CE05909125
:10501000CF058D3091050CF4BDC921E030E030930F
:10502000CD052093CC052091CC053091CD05232BC7
:1050300009F0B9C901969093CF058093CE05AFC80A
:105040008091D3049091D4040E94BE2B8091D0040F
:105050009091D10497FD03C060E00E94BA04809152
:105060007605909177050E94BE2B809173059091F3
:10507000740597FD03C060E00E94BA048BE492E0DF
:105080009093AE058093AD0580914E0390914F03B0
:105090008D5A954071F4E091C005F091C105908161
:1050A0008091C20580958923808310924F031092CE
:1050B0004E0308955058BB27AA270E9472280C94CB
:1050C000BC290E94AE2938F00E94B52920F039F49D
:1050D0009F3F19F426F40C94AB290EF4E095E7FBFE
:1050E0000C94A529E92F0E94CD2958F3BA1762071D
:1050F00073078407950720F079F4A6F50C94EF293F
:105100000EF4E0950B2EBA2FA02D0B01B9019001E2
:105110000C01CA01A0011124FF27591B99F0593F26
:1051200050F4503E68F11A16F040A22F232F342F6E
:105130004427585FF3CF469537952795A795F040BC
:105140005395C9F77EF41F16BA0B620B730B840BD1
:10515000BAF09150A1F0FF0FBB1F661F771F881F89
:10516000C2F70EC0BA0F621F731F841F48F48795E1
:1051700077956795B795F7959E3F08F0B0CF9395D3
:10518000880F08F09927EE0F9795879508950E944C
:10519000DB280C94BC290E94B52958F00E94AE2946
:1051A00040F029F45F3F29F00C94A52951110C948B
:1051B000F0290C94AB290E94CD2968F39923B1F30F
:1051C000552391F3951B550BBB27AA27621773072D
:1051D000840738F09F5F5F4F220F331F441FAA1FC1
:1051E000A9F335D00E2E3AF0E0E832D0915050407D
:1051F000E695001CCAF72BD0FE2F29D0660F771F2B
:10520000881FBB1F261737074807AB07B0E809F010
:10521000BB0B802DBF01FF2793585F4F3AF09E3F95
:10522000510578F00C94A5290C94F0295F3FE4F324
:10523000983ED4F3869577956795B795F7959F5FD8
:10524000C9F7880F911D9695879597F90895E1E024
:10525000660F771F881FBB1F621773078407BA0783
:1052600020F0621B730B840BBA0BEE1F88F7E095DE
:1052700008950E94D52988F09F5798F0B92F992753
:10528000B751B0F0E1F0660F771F881F991F1AF031
:10529000BA95C9F714C0B13091F00E94EF29B1E07E
:1052A00008950C94EF29672F782F8827B85F39F07D
:1052B000B93FCCF3869577956795B395D9F73EF4CA
:1052C00090958095709561957F4F8F4F9F4F089572
:1052D000E89409C097FB3EF4909580957095619590
:1052E0007F4F8F4F9F4F9923A9F0F92F96E9BB2746
:1052F0009395F695879577956795B795F111F8CFC2
:10530000FAF4BB0F11F460FF1BC06F5F7F4F8F4F2C
:105310009F4F16C0882311F096E911C0772321F022
:105320009EE8872F762F05C0662371F096E8862FBA
:1053300070E060E02AF09A95660F771F881FDAF711
:10534000880F9695879597F9089597F99F6780E854
:1053500070E060E008959FEF80EC089500240A94C7
:105360001616170618060906089500240A94121640
:105370001306140605060895092E0394000C11F473
:10538000882352F0BB0F40F4BF2B11F460FF04C020
:105390006F5F7F4F8F4F9F4F089557FD9058440F79
:1053A000551F59F05F3F71F04795880F97FB991F84
:1053B00061F09F3F79F08795089512161306140641
:1053C000551FF2CF4695F1DF08C0161617061806CE
:1053D000991FF1CF86957105610508940895E894A9
:1053E000BB2766277727CB0197F908950E94682A83
:1053F00008F48FEF08950E940E2A0C94BC290E9495
:10540000AE2938F00E94B52920F0952311F00C94B4
:10541000A5290C94AB2911240C94F0290E94CD29C4
:1054200070F3959FC1F3950F50E0551F629FF001F7
:10543000729FBB27F00DB11D639FAA27F00DB11D10
:10544000AA1F649F6627B00DA11D661F829F222799
:10545000B00DA11D621F739FB00DA11D621F839F20
:10546000A00D611D221F749F3327A00D611D231FF6
:10547000849F600D211D822F762F6A2F11249F5744
:1054800050409AF0F1F088234AF0EE0FFF1FBB1F47
:10549000661F771F881F91505040A9F79E3F510506
:1054A00080F00C94A5290C94F0295F3FE4F3983E1A
:1054B000D4F3869577956795B795F795E7959F5FB0
:1054C000C1F7FE2B880F911D9695879597F9089542
:1054D000990F0008550FAA0BE0E8FEEF1616170605
:1054E000E807F907C0F012161306E407F50798F06D
:1054F000621B730B840B950B39F40A2661F0232B86
:10550000242B252B21F408950A2609F4A140A69501
:105510008FEF811D811D0895DB018F939F930E9462
:10552000EC2ABF91AF91A29F800D911DA39F900D7A
:10553000B29F900D11240895AA1BBB1B51E107C017
:10554000AA1FBB1FA617B70710F0A61BB70B881F13
:10555000991F5A95A9F780959095BC01CD010895A2
:1055600097FB072E16F4009407D077FD09D00E9410
:105570009C2A07FC05D03EF4909581959F4F089595
:10558000709561957F4F0895A1E21A2EAA1BBB1B4F
:10559000FD010DC0AA1FBB1FEE1FFF1FA217B307FF
:1055A000E407F50720F0A21BB30BE40BF50B661F15
:1055B000771F881F991F1A9469F7609570958095D9
:1055C00090959B01AC01BD01CF010895EE0FFF1F27
:1055D0000590F491E02D09940E94F72AA59F900D63
:1055E000B49F900DA49F800D911D11240895A29F3A
:1055F000B001B39FC001A39F700D811D1124911DA7
:10560000B29F700D811D1124911D08950F931F935A
:10561000CF93DF93869F8001879F100D969F100D7B
:105620001124C8010E94222BEC01009729F0A80147
:1056300070E060E00E94472CCE01DF91CF911F9176
:105640000F9108950F931F93CF93DF9382309105AD
:1056500010F482E090E0E091E505F091E60530E09D
:1056600020E0B0E0A0E0309799F42115310509F46D
:105670004AC0281B390B24303105D8F58A819B811B
:105680006115710589F1FB0193838283FE0111C0CD
:10569000408151810281138148175907E0F0481772
:1056A000590799F4109761F012960C93129713967C
:1056B0001C933296CF01DF91CF911F910F910895E6
:1056C0000093E5051093E605F4CF2115310551F05F
:1056D0004217530738F0A901DB019A01BD01DF0130
:1056E000F801C1CFEF01F9CF9093E6058093E5056E
:1056F000CDCFFE01E20FF31F819391932250310928
:1057000039832883D7CF2091E3053091E405232BFB
:1057100041F420910301309104013093E40520937A
:10572000E30520910101309102012115310541F479
:105730002DB73EB74091050150910601241B350B52
:10574000E091E305F091E405E217F307A0F42E1BC6
:105750003F0B2817390778F0AC014E5F5F4F2417D5
:10576000350748F04E0F5F1F5093E4054093E30563
:10577000819391939FCFF0E0E0E09CCFCF93DF93B4
:105780000097E9F0FC01329713821282A091E5059F
:10579000B091E605ED0130E020E01097A1F4208102
:1057A0003181820F931F2091E3053091E405281782
:1057B000390709F061C0F093E405E093E305DF9158
:1057C000CF910895EA01CE17DF07E8F54A815B81A2
:1057D0009E0141155105B1F7E901FB83EA83499127
:1057E0005991C40FD51FEC17FD0761F48081918199
:1057F0000296840F951FE9019983888382819381A2
:105800009B838A83F0E0E0E012968D919C91139740
:105810000097B9F52D913C911197CD010296820F19
:10582000931F2091E3053091E4052817390739F6D5
:10583000309751F51092E6051092E505B093E40516
:10584000A093E305BCCFD383C28340815181840FF1
:10585000951FC817D90761F44E5F5F4F8881998102
:10586000480F591F518340838A819B819383828390
:105870002115310509F0B0CFF093E605E093E50579
:105880009ECFFD01DC01C0CF13821282D7CFDC0195
:1058900001C06D9341505040E0F7089512E0C6E01A
:1058A000D2E004C0FE010E94E62A2196C730D1074B
:0658B000C9F7F894FFCFD8
:1058B600010000E705800001000100010001000170
:1058C60000010001000100010001000100010001CA
:1058D60000010001000100010001000100010001BA
:1058E60000010001000100010001000100010001AA
:1058F600000100010001000100010001000100019A
:1059060000010001000100FF000000FF0000000090
:10591600000000FF00000000000000000000000082
:10592600000000FF000000FF000000FF0000000074
:105936000000000000000000000000000000000061
:10594600000000FF000000FF00000000000000FF54
:10595600000000FF000000FF000000FF000000FF45
:10596600000000FF00000000000000FF000000FF34
:105976000000000000000000000000000000000021
:105986000001000200030000010101020103010001
:1059960002010202020302000301030203030300E1
:1059A60004010402040304000501050205030500C1
:1059B60006010602060306003131295A1B750A5FE5
:1059C600000000050000005F0000005F00000032DC
:1059D60000000000000000F00550057D054206AEFF
:1059E600058C05A005000000000608D907C90DAF03
:1059F60007D207BF07B00700000000360D5005C9E3
:105A06000DAF07920DA80D1E0D000000010002004B
:105A16000301000101010201030200020102020268
:105A26000303000301030203030400040104020448
:105A36000305000501050205030600060106020628
:105A46000353656E742000537461636B3A000D0A4C
:025A560000004E
:00000001FF
